{"abi":[{"type":"constructor","inputs":[{"name":"_poolManager","type":"address","internalType":"contract IPoolManager"},{"name":"initialOwner","type":"address","internalType":"address"}],"stateMutability":"nonpayable"},{"type":"fallback","stateMutability":"payable"},{"type":"receive","stateMutability":"payable"},{"type":"function","name":"CHAINS","inputs":[{"name":"","type":"uint256","internalType":"uint256"}],"outputs":[{"name":"endpoint","type":"address","internalType":"address"},{"name":"endpointExtended","type":"bytes","internalType":"bytes"},{"name":"confirmations","type":"uint16","internalType":"uint16"},{"name":"extended","type":"bool","internalType":"bool"}],"stateMutability":"view"},{"type":"function","name":"FEATURES","inputs":[{"name":"","type":"uint256","internalType":"uint256"},{"name":"","type":"uint32","internalType":"uint32"}],"outputs":[{"name":"endpoint","type":"address","internalType":"address"},{"name":"endpointExtended","type":"bytes","internalType":"bytes"},{"name":"confirmations","type":"uint16","internalType":"uint16"},{"name":"extended","type":"bool","internalType":"bool"}],"stateMutability":"view"},{"type":"function","name":"FEATURE_GATEWAY","inputs":[],"outputs":[{"name":"","type":"address","internalType":"contract IFeatureGateway"}],"stateMutability":"view"},{"type":"function","name":"FEE_TOKEN","inputs":[],"outputs":[{"name":"","type":"address","internalType":"contract IERC20cl"}],"stateMutability":"view"},{"type":"function","name":"MESSAGE_OWNER","inputs":[],"outputs":[{"name":"","type":"address","internalType":"address"}],"stateMutability":"view"},{"type":"function","name":"MESSAGEv3","inputs":[],"outputs":[{"name":"","type":"address","internalType":"contract IMessageV3"}],"stateMutability":"view"},{"type":"function","name":"NOTARY_PUBLIC_KEY","inputs":[],"outputs":[{"name":"","type":"address","internalType":"address"}],"stateMutability":"view"},{"type":"function","name":"allowance","inputs":[{"name":"owner","type":"address","internalType":"address"},{"name":"spender","type":"address","internalType":"address"}],"outputs":[{"name":"","type":"uint256","internalType":"uint256"}],"stateMutability":"view"},{"type":"function","name":"approve","inputs":[{"name":"spender","type":"address","internalType":"address"},{"name":"value","type":"uint256","internalType":"uint256"}],"outputs":[{"name":"","type":"bool","internalType":"bool"}],"stateMutability":"nonpayable"},{"type":"function","name":"balanceOf","inputs":[{"name":"account","type":"address","internalType":"address"}],"outputs":[{"name":"","type":"uint256","internalType":"uint256"}],"stateMutability":"view"},{"type":"function","name":"bridge","inputs":[{"name":"_destChainId","type":"uint256","internalType":"uint256"},{"name":"_recipient","type":"address","internalType":"address"},{"name":"_amount","type":"uint256","internalType":"uint256"},{"name":"_desiredOutputToken","type":"address","internalType":"address"},{"name":"officialRate","type":"bool","internalType":"bool"}],"outputs":[],"stateMutability":"nonpayable"},{"type":"function","name":"burn","inputs":[{"name":"value","type":"uint256","internalType":"uint256"}],"outputs":[],"stateMutability":"nonpayable"},{"type":"function","name":"burnFrom","inputs":[{"name":"account","type":"address","internalType":"address"},{"name":"value","type":"uint256","internalType":"uint256"}],"outputs":[],"stateMutability":"nonpayable"},{"type":"function","name":"configureClient","inputs":[{"name":"_messageV3","type":"address","internalType":"address"},{"name":"_chains","type":"uint256[]","internalType":"uint256[]"},{"name":"_endpoints","type":"address[]","internalType":"address[]"},{"name":"_confirmations","type":"uint16[]","internalType":"uint16[]"}],"outputs":[],"stateMutability":"nonpayable"},{"type":"function","name":"configureClientExtended","inputs":[{"name":"_messageV3","type":"address","internalType":"address"},{"name":"_chains","type":"uint256[]","internalType":"uint256[]"},{"name":"_endpoints","type":"bytes[]","internalType":"bytes[]"},{"name":"_confirmations","type":"uint16[]","internalType":"uint16[]"}],"outputs":[],"stateMutability":"nonpayable"},{"type":"function","name":"configureFeatureGateway","inputs":[{"name":"_featureGateway","type":"address","internalType":"address"}],"outputs":[],"stateMutability":"nonpayable"},{"type":"function","name":"decimals","inputs":[],"outputs":[{"name":"","type":"uint8","internalType":"uint8"}],"stateMutability":"view"},{"type":"function","name":"isAuthorized","inputs":[{"name":"_sender","type":"address","internalType":"address"},{"name":"_sourceChainId","type":"uint256","internalType":"uint256"}],"outputs":[{"name":"","type":"bool","internalType":"bool"}],"stateMutability":"view"},{"type":"function","name":"isSelf","inputs":[{"name":"_sender","type":"address","internalType":"address"},{"name":"_sourceChainId","type":"uint256","internalType":"uint256"}],"outputs":[{"name":"","type":"bool","internalType":"bool"}],"stateMutability":"view"},{"type":"function","name":"messageProcess","inputs":[{"name":"","type":"uint256","internalType":"uint256"},{"name":"_sourceChainId","type":"uint256","internalType":"uint256"},{"name":"_sender","type":"address","internalType":"address"},{"name":"","type":"address","internalType":"address"},{"name":"","type":"uint256","internalType":"uint256"},{"name":"_data","type":"bytes","internalType":"bytes"}],"outputs":[],"stateMutability":"nonpayable"},{"type":"function","name":"name","inputs":[],"outputs":[{"name":"","type":"string","internalType":"string"}],"stateMutability":"view"},{"type":"function","name":"owner","inputs":[],"outputs":[{"name":"","type":"address","internalType":"address"}],"stateMutability":"view"},{"type":"function","name":"poolManager","inputs":[],"outputs":[{"name":"","type":"address","internalType":"contract IPoolManager"}],"stateMutability":"view"},{"type":"function","name":"rate","inputs":[],"outputs":[{"name":"","type":"uint256","internalType":"uint256"}],"stateMutability":"view"},{"type":"function","name":"recoverToken","inputs":[{"name":"_token","type":"address","internalType":"address"},{"name":"_amount","type":"uint256","internalType":"uint256"}],"outputs":[],"stateMutability":"nonpayable"},{"type":"function","name":"renounceOwnership","inputs":[],"outputs":[],"stateMutability":"nonpayable"},{"type":"function","name":"setExsig","inputs":[{"name":"_signer","type":"address","internalType":"address"}],"outputs":[],"stateMutability":"nonpayable"},{"type":"function","name":"setMaxfee","inputs":[{"name":"_maxFee","type":"uint256","internalType":"uint256"}],"outputs":[],"stateMutability":"nonpayable"},{"type":"function","name":"setMaxgas","inputs":[{"name":"_maxGas","type":"uint256","internalType":"uint256"}],"outputs":[],"stateMutability":"nonpayable"},{"type":"function","name":"symbol","inputs":[],"outputs":[{"name":"","type":"string","internalType":"string"}],"stateMutability":"view"},{"type":"function","name":"testMint","inputs":[{"name":"_to","type":"address","internalType":"address"},{"name":"_amount","type":"uint256","internalType":"uint256"}],"outputs":[],"stateMutability":"nonpayable"},{"type":"function","name":"totalSupply","inputs":[],"outputs":[{"name":"","type":"uint256","internalType":"uint256"}],"stateMutability":"view"},{"type":"function","name":"transfer","inputs":[{"name":"to","type":"address","internalType":"address"},{"name":"value","type":"uint256","internalType":"uint256"}],"outputs":[{"name":"","type":"bool","internalType":"bool"}],"stateMutability":"nonpayable"},{"type":"function","name":"transferFrom","inputs":[{"name":"from","type":"address","internalType":"address"},{"name":"to","type":"address","internalType":"address"},{"name":"value","type":"uint256","internalType":"uint256"}],"outputs":[{"name":"","type":"bool","internalType":"bool"}],"stateMutability":"nonpayable"},{"type":"function","name":"transferMessageOwnership","inputs":[{"name":"_newMessageOwner","type":"address","internalType":"address"}],"outputs":[],"stateMutability":"nonpayable"},{"type":"function","name":"transferOwnership","inputs":[{"name":"newOwner","type":"address","internalType":"address"}],"outputs":[],"stateMutability":"nonpayable"},{"type":"function","name":"updateRate","inputs":[{"name":"_rate","type":"uint256","internalType":"uint256"},{"name":"_messageHash","type":"bytes32","internalType":"bytes32"},{"name":"_signature","type":"bytes","internalType":"bytes"}],"outputs":[],"stateMutability":"nonpayable"},{"type":"event","name":"Approval","inputs":[{"name":"owner","type":"address","indexed":true,"internalType":"address"},{"name":"spender","type":"address","indexed":true,"internalType":"address"},{"name":"value","type":"uint256","indexed":false,"internalType":"uint256"}],"anonymous":false},{"type":"event","name":"MessageOwnershipTransferred","inputs":[{"name":"previousOwner","type":"address","indexed":false,"internalType":"address"},{"name":"newOwner","type":"address","indexed":false,"internalType":"address"}],"anonymous":false},{"type":"event","name":"OwnershipTransferred","inputs":[{"name":"previousOwner","type":"address","indexed":true,"internalType":"address"},{"name":"newOwner","type":"address","indexed":true,"internalType":"address"}],"anonymous":false},{"type":"event","name":"RecoverToken","inputs":[{"name":"owner","type":"address","indexed":false,"internalType":"address"},{"name":"token","type":"address","indexed":false,"internalType":"address"},{"name":"amount","type":"uint256","indexed":false,"internalType":"uint256"}],"anonymous":false},{"type":"event","name":"SendMessageWithFeature","inputs":[{"name":"txId","type":"uint256","indexed":false,"internalType":"uint256"},{"name":"destinationChainId","type":"uint256","indexed":false,"internalType":"uint256"},{"name":"featureId","type":"uint32","indexed":false,"internalType":"uint32"},{"name":"featureData","type":"bytes","indexed":false,"internalType":"bytes"}],"anonymous":false},{"type":"event","name":"SetExsig","inputs":[{"name":"owner","type":"address","indexed":false,"internalType":"address"},{"name":"exsig","type":"address","indexed":false,"internalType":"address"}],"anonymous":false},{"type":"event","name":"SetMaxfee","inputs":[{"name":"owner","type":"address","indexed":false,"internalType":"address"},{"name":"maxfee","type":"uint256","indexed":false,"internalType":"uint256"}],"anonymous":false},{"type":"event","name":"SetMaxgas","inputs":[{"name":"owner","type":"address","indexed":false,"internalType":"address"},{"name":"maxGas","type":"uint256","indexed":false,"internalType":"uint256"}],"anonymous":false},{"type":"event","name":"SwapExecuted","inputs":[{"name":"amountSwapped","type":"uint256","indexed":false,"internalType":"uint256"},{"name":"outputToken","type":"address","indexed":false,"internalType":"address"}],"anonymous":false},{"type":"event","name":"Transfer","inputs":[{"name":"from","type":"address","indexed":true,"internalType":"address"},{"name":"to","type":"address","indexed":true,"internalType":"address"},{"name":"value","type":"uint256","indexed":false,"internalType":"uint256"}],"anonymous":false},{"type":"error","name":"ERC20InsufficientAllowance","inputs":[{"name":"spender","type":"address","internalType":"address"},{"name":"allowance","type":"uint256","internalType":"uint256"},{"name":"needed","type":"uint256","internalType":"uint256"}]},{"type":"error","name":"ERC20InsufficientBalance","inputs":[{"name":"sender","type":"address","internalType":"address"},{"name":"balance","type":"uint256","internalType":"uint256"},{"name":"needed","type":"uint256","internalType":"uint256"}]},{"type":"error","name":"ERC20InvalidApprover","inputs":[{"name":"approver","type":"address","internalType":"address"}]},{"type":"error","name":"ERC20InvalidReceiver","inputs":[{"name":"receiver","type":"address","internalType":"address"}]},{"type":"error","name":"ERC20InvalidSender","inputs":[{"name":"sender","type":"address","internalType":"address"}]},{"type":"error","name":"ERC20InvalidSpender","inputs":[{"name":"spender","type":"address","internalType":"address"}]},{"type":"error","name":"OwnableInvalidOwner","inputs":[{"name":"owner","type":"address","internalType":"address"}]},{"type":"error","name":"OwnableUnauthorizedAccount","inputs":[{"name":"account","type":"address","internalType":"address"}]}],"bytecode":{"object":"0x608060405234801561001057600080fd5b50604051612a88380380612a8883398101604081905261002f916101dc565b806040518060400160405280600e81526020016d22ba3434b7b834b0b7102134b93960911b8152506040518060400160405280600381526020016222aa2160e91b815250816003908161008291906102b5565b50600461008f82826102b5565b5050506001600160a01b0381166100c157604051631e4fbdf760e01b8152600060048201526024015b60405180910390fd5b6100ca81610108565b506100d48161015a565b50600a8054336001600160a01b031991821617909155603f80549091166001600160a01b0392909216919091179055610373565b603d80546001600160a01b038381166001600160a01b0319831681179093556040519116919082907f8be0079c531659141344cd1fd0a4f28419497f9722a3daafe3b4186f6b6457e090600090a35050565b610162610198565b6001600160a01b03811661018c57604051631e4fbdf760e01b8152600060048201526024016100b8565b61019581610108565b50565b603d546001600160a01b031633146101c55760405163118cdaa760e01b81523360048201526024016100b8565b565b6001600160a01b038116811461019557600080fd5b600080604083850312156101ef57600080fd5b82516101fa816101c7565b602084015190925061020b816101c7565b809150509250929050565b634e487b7160e01b600052604160045260246000fd5b600181811c9082168061024057607f821691505b60208210810361026057634e487b7160e01b600052602260045260246000fd5b50919050565b601f8211156102b057806000526020600020601f840160051c8101602085101561028d5750805b601f840160051c820191505b818110156102ad5760008155600101610299565b50505b505050565b81516001600160401b038111156102ce576102ce610216565b6102e2816102dc845461022c565b84610266565b6020601f82116001811461031657600083156102fe5750848201515b600019600385901b1c1916600184901b1784556102ad565b600084815260208120601f198516915b828110156103465787850151825560209485019460019092019101610326565b50848210156103645786840151600019600387901b60f8161c191681555b50505050600190811b01905550565b612706806103826000396000f3fe6080604052600436106102065760003560e01c806379cc679011610117578063b8c3e0e6116100a5578063e47ad74d1161006c578063e47ad74d1461066f578063f28e093d1461068f578063f2fde38b146106af578063f52a9198146106cf578063f7194138146106ef57005b8063b8c3e0e6146105a1578063bb0b9830146105c9578063c60853f6146105e9578063dc4c90d314610609578063dd62ed3e1461062957005b806395d89b41116100e957806395d89b411461050c578063a9059cbb14610521578063b29a814014610541578063b479a96114610561578063b7f494a41461058157005b806379cc67901461047e578063853c75d81461049e5780638da5cb5b146104be57806392ae12fd146104dc57005b80632c4e722e11610194578063559b2f6511610166578063559b2f65146103d35780635f46e740146103f357806370a0823114610413578063715018a61461044957806373717b081461045e57005b80632c4e722e146103615780632ee02d7c14610377578063313ce5671461039757806342966c68146103b357005b806318160ddd116101d857806318160ddd146102c25780631e6256b8146102e157806320bfe3421461030157806323b872dd146103215780632972b0f01461034157005b806306fdde031461020f578063095ea7b31461023a5780630cdcb8511461026a5780630d0298021461028a57005b3661020d57005b005b34801561021b57600080fd5b5061022461070f565b6040516102319190611e64565b60405180910390f35b34801561024657600080fd5b5061025a610255366004611e8c565b6107a1565b6040519015158152602001610231565b34801561027657600080fd5b5061020d610285366004611ece565b6107bb565b34801561029657600080fd5b506005546102aa906001600160a01b031681565b6040516001600160a01b039091168152602001610231565b3480156102ce57600080fd5b506002545b604051908152602001610231565b3480156102ed57600080fd5b5061020d6102fc366004611fa8565b6107d8565b34801561030d57600080fd5b5061025a61031c366004611e8c565b6108ac565b34801561032d57600080fd5b5061025a61033c366004612007565b6108df565b34801561034d57600080fd5b5061025a61035c366004611e8c565b610903565b34801561036d57600080fd5b506102d3603e5481565b34801561038357600080fd5b5061020d610392366004612094565b610916565b3480156103a357600080fd5b5060405160128152602001610231565b3480156103bf57600080fd5b5061020d6103ce36600461214d565b610a9c565b3480156103df57600080fd5b5061020d6103ee366004612166565b610aa9565b3480156103ff57600080fd5b5061020d61040e366004612183565b610b2f565b34801561041f57600080fd5b506102d361042e366004612166565b6001600160a01b031660009081526020819052604090205490565b34801561045557600080fd5b5061020d610bf1565b34801561046a57600080fd5b506006546102aa906001600160a01b031681565b34801561048a57600080fd5b5061020d610499366004611e8c565b610c05565b3480156104aa57600080fd5b50600a546102aa906001600160a01b031681565b3480156104ca57600080fd5b50603d546001600160a01b03166102aa565b3480156104e857600080fd5b506104fc6104f736600461214d565b610c1e565b604051610231949392919061223b565b34801561051857600080fd5b50610224610ce3565b34801561052d57600080fd5b5061025a61053c366004611e8c565b610cf2565b34801561054d57600080fd5b5061020d61055c366004611e8c565b610d00565b34801561056d57600080fd5b5061020d61057c36600461214d565b610e88565b34801561058d57600080fd5b5061020d61059c366004612094565b610f47565b3480156105ad57600080fd5b506102aa735f4ec3df9cbd43714fe2740f5e3616155c5b841981565b3480156105d557600080fd5b506007546102aa906001600160a01b031681565b3480156105f557600080fd5b5061020d610604366004612166565b6110ea565b34801561061557600080fd5b50603f546102aa906001600160a01b031681565b34801561063557600080fd5b506102d361064436600461227b565b6001600160a01b03918216600090815260016020908152604080832093909416825291909152205490565b34801561067b57600080fd5b5061020d61068a36600461214d565b6111b2565b34801561069b57600080fd5b5061020d6106aa366004611e8c565b611271565b3480156106bb57600080fd5b5061020d6106ca366004612166565b6112e4565b3480156106db57600080fd5b506104fc6106ea3660046122b4565b61131f565b3480156106fb57600080fd5b5061020d61070a366004612166565b611356565b60606003805461071e906122e2565b80601f016020809104026020016040519081016040528092919081815260200182805461074a906122e2565b80156107975780601f1061076c57610100808354040283529160200191610797565b820191906000526020600020905b81548152906001019060200180831161077a57829003601f168201915b5050505050905090565b6000336107af8185856113a2565b60019150505b92915050565b6107c36113b4565b6107d1565b60405180910390fd5b5050603e55565b60008581526009602052604090205485906001600160a01b03166108525760405162461bcd60e51b815260206004820152602b60248201527f4d657373616765436c69656e743a2064657374696e6174696f6e20636861696e60448201526a206e6f742061637469766560a81b60648201526084016107c8565b61085c33856113e1565b604080516001600160a01b038088166020830152918101869052908416606082015282151560808201526108a390879060a001604051602081830303815290604052611417565b50505050505050565b6000818152600960205260408120546001600160a01b03908116908416036108d6575060016107b5565b50600092915050565b6000336108ed8582856115b5565b6108f8858585611633565b506001949350505050565b600061090f83836108ac565b9392505050565b600a546001600160a01b031633146109405760405162461bcd60e51b81526004016107c89061231c565b8460005b81811015610a885783838281811061095e5761095e612353565b90506020020160208101906109739190612369565b600960008a8a8581811061098957610989612353565b90506020020135815260200190815260200160002060020160006101000a81548161ffff021916908361ffff1602179055508585828181106109cd576109cd612353565b90506020020160208101906109e29190612166565b600960008a8a858181106109f8576109f8612353565b90506020020135815260200190815260200160002060000160006101000a8154816001600160a01b0302191690836001600160a01b031602179055506000600960008a8a85818110610a4c57610a4c612353565b602090810292909201358352508101919091526040016000206002018054911515620100000262ff000019909216919091179055600101610944565b50610a9288611692565b5050505050505050565b610aa633826113e1565b50565b600a546001600160a01b03163314610ad35760405162461bcd60e51b81526004016107c89061231c565b600a80546001600160a01b0319166001600160a01b0383169081179091556040805133815260208101929092527fe1a25f463c6504824e91268b5b2c05658d5358c9c1698a85346cfae5336a642e91015b60405180910390a150565b600554859087906001600160a01b03163314610b5d5760405162461bcd60e51b81526004016107c89061231c565b6000818152600960205260409020546001600160a01b03838116911614610b965760405162461bcd60e51b81526004016107c89061231c565b6000808080610ba78789018961238d565b9350935093509350306001600160a01b0316826001600160a01b031614610bd857610bd3838383611919565b610be2565b610be28484611933565b50505050505050505050505050565b610bf96113b4565b610c036000611969565b565b610c108233836115b5565b610c1a82826113e1565b5050565b600960205260009081526040902080546001820180546001600160a01b039092169291610c4a906122e2565b80601f0160208091040260200160405190810160405280929190818152602001828054610c76906122e2565b8015610cc35780601f10610c9857610100808354040283529160200191610cc3565b820191906000526020600020905b815481529060010190602001808311610ca657829003601f168201915b5050506002909301549192505061ffff81169060ff620100009091041684565b60606004805461071e906122e2565b6000336107af818585611633565b600a546001600160a01b03163314610d2a5760405162461bcd60e51b81526004016107c89061231c565b6001600160a01b038216610dc857604051600090339083908381818185875af1925050503d8060008114610d7a576040519150601f19603f3d011682016040523d82523d6000602084013e610d7f565b606091505b5050905080610dc25760405162461bcd60e51b815260206004820152600f60248201526e151c985b9cd9995c8819985a5b1959608a1b60448201526064016107c8565b50610e3b565b60405163a9059cbb60e01b8152336004820152602481018290526001600160a01b0383169063a9059cbb906044016020604051808303816000875af1158015610e15573d6000803e3d6000fd5b505050506040513d601f19601f82011682018060405250810190610e3991906123e0565b505b604080513381526001600160a01b03841660208201529081018290527f16a1412f01b73c390eb2548427101644aa86c1443c272f73df00fb74c48fe4999060600160405180910390a15050565b600a546001600160a01b03163314610eb25760405162461bcd60e51b81526004016107c89061231c565b60055460405163b479a96160e01b8152600481018390526001600160a01b039091169063b479a96190602401600060405180830381600087803b158015610ef857600080fd5b505af1158015610f0c573d6000803e3d6000fd5b505060408051338152602081018590527f7b6bdf5a54b984bdb41e777eb126123085d57633ab56d408d9a1d39dd894e7bb9350019050610b24565b600a546001600160a01b03163314610f715760405162461bcd60e51b81526004016107c89061231c565b8460005b81811015610a8857838382818110610f8f57610f8f612353565b9050602002016020810190610fa49190612369565b600960008a8a85818110610fba57610fba612353565b90506020020135815260200190815260200160002060020160006101000a81548161ffff021916908361ffff160217905550858582818110610ffe57610ffe612353565b905060200281019061101091906123fd565b600960008b8b8681811061102657611026612353565b905060200201358152602001908152602001600020600101918261104b92919061248b565b506001600960008a8a8581811061106457611064612353565b90506020020135815260200190815260200160002060020160026101000a81548160ff0219169083151502179055506001600960008a8a858181106110ab576110ab612353565b6020908102929092013583525081019190915260400160002080546001600160a01b0319166001600160a01b0392909216919091179055600101610f75565b600a546001600160a01b031633146111145760405162461bcd60e51b81526004016107c89061231c565b60055460405163630429fb60e11b81526001600160a01b0383811660048301529091169063c60853f690602401600060405180830381600087803b15801561115b57600080fd5b505af115801561116f573d6000803e3d6000fd5b5050604080513381526001600160a01b03851660208201527f3785abad972484d82ebc033d8eb190737cd209b24e7f853dd622e415c3f537a29350019050610b24565b600a546001600160a01b031633146111dc5760405162461bcd60e51b81526004016107c89061231c565b60055460405163e47ad74d60e01b8152600481018390526001600160a01b039091169063e47ad74d90602401600060405180830381600087803b15801561122257600080fd5b505af1158015611236573d6000803e3d6000fd5b505060408051338152602081018590527f83f76efc0c025b2e3779f7bcead5a89ddaf05dc7829157cdab021a8591e7a6f99350019050610b24565b600a546001600160a01b031633146112da5760405162461bcd60e51b815260206004820152602660248201527f4554423a204f6e6c79206f776e65722063616e2063616c6c20746869732066756044820152653731ba34b7b760d11b60648201526084016107c8565b610c1a8282611933565b6112ec6113b4565b6001600160a01b03811661131657604051631e4fbdf760e01b8152600060048201526024016107c8565b610aa681611969565b6008602090815260009283526040808420909152908252902080546001820180546001600160a01b039092169291610c4a906122e2565b600a546001600160a01b031633146113805760405162461bcd60e51b81526004016107c89061231c565b600780546001600160a01b0319166001600160a01b0392909216919091179055565b6113af83838360016119bb565b505050565b603d546001600160a01b03163314610c035760405163118cdaa760e01b81523360048201526024016107c8565b6001600160a01b03821661140b57604051634b637e8f60e11b8152600060048201526024016107c8565b610c1a82600083611a90565b600082815260096020908152604080832081516080810190925280546001600160a01b03168252600181018054859484019190611453906122e2565b80601f016020809104026020016040519081016040528092919081815260200182805461147f906122e2565b80156114cc5780601f106114a1576101008083540402835291602001916114cc565b820191906000526020600020905b8154815290600101906020018083116114af57829003601f168201915b50505091835250506002919091015461ffff8116602083015262010000900460ff16151560409091015260608101519091501561152c5782816020015160405160200161151a92919061254b565b60405160208183030381529060405292505b60055481516040808401519051633f6b724360e21b81526001600160a01b039093169263fdadc90c9261156a92909189918991600090600401612579565b6020604051808303816000875af1158015611589573d6000803e3d6000fd5b505050506040513d601f19601f820116820180604052508101906115ad91906125bd565b949350505050565b6001600160a01b03838116600090815260016020908152604080832093861683529290522054600019811461162d578181101561161e57604051637dc7a0d960e11b81526001600160a01b038416600482015260248101829052604481018390526064016107c8565b61162d848484840360006119bb565b50505050565b6001600160a01b03831661165d57604051634b637e8f60e11b8152600060048201526024016107c8565b6001600160a01b0382166116875760405163ec442f0560e01b8152600060048201526024016107c8565b6113af838383611a90565b600580546001600160a01b0319166001600160a01b0383169081179091556040805163647846a560e01b8152905163647846a5916004808201926020929091908290030181865afa1580156116eb573d6000803e3d6000fd5b505050506040513d601f19601f8201168201806040525081019061170f91906125d6565b600680546001600160a01b0319166001600160a01b03929092169182179055156117af5760065460055460405163095ea7b360e01b81526001600160a01b039182166004820152600019602482015291169063095ea7b3906044016020604051808303816000875af1158015611789573d6000803e3d6000fd5b505050506040513d601f19601f820116820180604052508101906117ad91906123e0565b505b60055460408051633fc8cef360e01b815290516000926001600160a01b031691633fc8cef39160048083019260209291908290030181865afa1580156117f9573d6000803e3d6000fd5b505050506040513d601f19601f8201168201806040525081019061181d91906125d6565b6001600160a01b031614610aa657600560009054906101000a90046001600160a01b03166001600160a01b0316633fc8cef36040518163ffffffff1660e01b8152600401602060405180830381865afa15801561187e573d6000803e3d6000fd5b505050506040513d601f19601f820116820180604052508101906118a291906125d6565b60055460405163095ea7b360e01b81526001600160a01b039182166004820152600019602482015291169063095ea7b3906044016020604051808303816000875af11580156118f5573d6000803e3d6000fd5b505050506040513d601f19601f82011682018060405250810190610c1a91906123e0565b8015611929576113af8383611bba565b6113af8383611d13565b6001600160a01b03821661195d5760405163ec442f0560e01b8152600060048201526024016107c8565b610c1a60008383611a90565b603d80546001600160a01b038381166001600160a01b0319831681179093556040519116919082907f8be0079c531659141344cd1fd0a4f28419497f9722a3daafe3b4186f6b6457e090600090a35050565b6001600160a01b0384166119e55760405163e602df0560e01b8152600060048201526024016107c8565b6001600160a01b038316611a0f57604051634a1406b160e11b8152600060048201526024016107c8565b6001600160a01b038085166000908152600160209081526040808320938716835292905220829055801561162d57826001600160a01b0316846001600160a01b03167f8c5be1e5ebec7d5bd14f71427d1e84f3dd0314c0f7b2291e5b200ac8c7c3b92584604051611a8291815260200190565b60405180910390a350505050565b6001600160a01b038316611abb578060026000828254611ab09190612609565b90915550611b2d9050565b6001600160a01b03831660009081526020819052604090205481811015611b0e5760405163391434e360e21b81526001600160a01b038516600482015260248101829052604481018390526064016107c8565b6001600160a01b03841660009081526020819052604090209082900390555b6001600160a01b038216611b4957600280548290039055611b68565b6001600160a01b03821660009081526020819052604090208054820190555b816001600160a01b0316836001600160a01b03167fddf252ad1be2c89b69c2b068fc378daa952ba7f163c4a11628f55a4df523b3ef83604051611bad91815260200190565b60405180910390a3505050565b603e548190600090670de0b6b3a764000090611bd6908661261c565b611be09190612633565b6040516370a0823160e01b815230600482015290915081906001600160a01b038416906370a0823190602401602060405180830381865afa158015611c29573d6000803e3d6000fd5b505050506040513d601f19601f82011682018060405250810190611c4d91906125bd565b1015611c9b5760405162461bcd60e51b815260206004820152601960248201527f496e73756666696369656e7420555344432062616c616e63650000000000000060448201526064016107c8565b60405163a9059cbb60e01b8152336004820152602481018290526001600160a01b0383169063a9059cbb906044016020604051808303816000875af1158015611ce8573d6000803e3d6000fd5b505050506040513d601f19601f82011682018060405250810190611d0c91906123e0565b5050505050565b6040805160a0810182523081526001600160a01b03838116602080840191909152610dac83850152603c606080850191909152600060808501819052855191820186526001825291810187905280850191909152603f549351633cf3645360e21b81529293909291169063f3cd914c90611d939085908590600401612655565b6020604051808303816000875af1158015611db2573d6000803e3d6000fd5b505050506040513d601f19601f82011682018060405250810190611dd691906125bd565b50604080518581526001600160a01b03851660208201527f5e151cf22271fbddd8ba632d1dfc6790556a3990827574210cf70d2ed216a505910160405180910390a150505050565b6000815180845260005b81811015611e4457602081850181015186830182015201611e28565b506000602082860101526020601f19601f83011685010191505092915050565b60208152600061090f6020830184611e1e565b6001600160a01b0381168114610aa657600080fd5b60008060408385031215611e9f57600080fd5b8235611eaa81611e77565b946020939093013593505050565b634e487b7160e01b600052604160045260246000fd5b600080600060608486031215611ee357600080fd5b8335925060208401359150604084013567ffffffffffffffff811115611f0857600080fd5b8401601f81018613611f1957600080fd5b803567ffffffffffffffff811115611f3357611f33611eb8565b604051601f8201601f19908116603f0116810167ffffffffffffffff81118282101715611f6257611f62611eb8565b604052818152828201602001881015611f7a57600080fd5b816020840160208301376000602083830101528093505050509250925092565b8015158114610aa657600080fd5b600080600080600060a08688031215611fc057600080fd5b853594506020860135611fd281611e77565b9350604086013592506060860135611fe981611e77565b91506080860135611ff981611f9a565b809150509295509295909350565b60008060006060848603121561201c57600080fd5b833561202781611e77565b9250602084013561203781611e77565b929592945050506040919091013590565b60008083601f84011261205a57600080fd5b50813567ffffffffffffffff81111561207257600080fd5b6020830191508360208260051b850101111561208d57600080fd5b9250929050565b60008060008060008060006080888a0312156120af57600080fd5b87356120ba81611e77565b9650602088013567ffffffffffffffff8111156120d657600080fd5b6120e28a828b01612048565b909750955050604088013567ffffffffffffffff81111561210257600080fd5b61210e8a828b01612048565b909550935050606088013567ffffffffffffffff81111561212e57600080fd5b61213a8a828b01612048565b989b979a50959850939692959293505050565b60006020828403121561215f57600080fd5b5035919050565b60006020828403121561217857600080fd5b813561090f81611e77565b600080600080600080600060c0888a03121561219e57600080fd5b873596506020880135955060408801356121b781611e77565b945060608801356121c781611e77565b93506080880135925060a088013567ffffffffffffffff8111156121ea57600080fd5b8801601f81018a136121fb57600080fd5b803567ffffffffffffffff81111561221257600080fd5b8a602082840101111561222457600080fd5b602082019350809250505092959891949750929550565b6001600160a01b038516815260806020820181905260009061225f90830186611e1e565b61ffff9490941660408301525090151560609091015292915050565b6000806040838503121561228e57600080fd5b823561229981611e77565b915060208301356122a981611e77565b809150509250929050565b600080604083850312156122c757600080fd5b82359150602083013563ffffffff811681146122a957600080fd5b600181811c908216806122f657607f821691505b60208210810361231657634e487b7160e01b600052602260045260246000fd5b50919050565b6020808252601d908201527f4d657373616765436c69656e743a206e6f7420617574686f72697a6564000000604082015260600190565b634e487b7160e01b600052603260045260246000fd5b60006020828403121561237b57600080fd5b813561ffff8116811461090f57600080fd5b600080600080608085870312156123a357600080fd5b84356123ae81611e77565b93506020850135925060408501356123c581611e77565b915060608501356123d581611f9a565b939692955090935050565b6000602082840312156123f257600080fd5b815161090f81611f9a565b6000808335601e1984360301811261241457600080fd5b83018035915067ffffffffffffffff82111561242f57600080fd5b60200191503681900382131561208d57600080fd5b601f8211156113af57806000526020600020601f840160051c8101602085101561246b5750805b601f840160051c820191505b81811015611d0c5760008155600101612477565b67ffffffffffffffff8311156124a3576124a3611eb8565b6124b7836124b183546122e2565b83612444565b6000601f8411600181146124eb57600085156124d35750838201355b600019600387901b1c1916600186901b178355611d0c565b600083815260209020601f19861690835b8281101561251c57868501358255602094850194600190920191016124fc565b50868210156125395760001960f88860031b161c19848701351681555b505060018560011b0183555050505050565b60408152600061255e6040830185611e1e565b82810360208401526125708185611e1e565b95945050505050565b60018060a01b038616815284602082015260a0604082015260006125a060a0830186611e1e565b61ffff949094166060830152509015156080909101529392505050565b6000602082840312156125cf57600080fd5b5051919050565b6000602082840312156125e857600080fd5b815161090f81611e77565b634e487b7160e01b600052601160045260246000fd5b808201808211156107b5576107b56125f3565b80820281158282048414176107b5576107b56125f3565b60008261265057634e487b7160e01b600052601260045260246000fd5b500490565b82516001600160a01b03908116825260208085015182168184015260408086015162ffffff168185015260608087015160020b908501526080808701518416908501528451151560a08501529084015160c08401528301511660e082015261012061010082015260006115ad6101208301600081526020019056fea2646970667358221220f241d00f006705a5ea2b510487701232c6c2a101d7c1e829a1f8dfddb9b9730364736f6c634300081a0033","linkReferences":{}},"methodIdentifiers":{"CHAINS(uint256)":"92ae12fd","FEATURES(uint256,uint32)":"f52a9198","FEATURE_GATEWAY()":"bb0b9830","FEE_TOKEN()":"73717b08","MESSAGE_OWNER()":"853c75d8","MESSAGEv3()":"0d029802","NOTARY_PUBLIC_KEY()":"b8c3e0e6","allowance(address,address)":"dd62ed3e","approve(address,uint256)":"095ea7b3","balanceOf(address)":"70a08231","bridge(uint256,address,uint256,address,bool)":"1e6256b8","burn(uint256)":"42966c68","burnFrom(address,uint256)":"79cc6790","configureClient(address,uint256[],address[],uint16[])":"2ee02d7c","configureClientExtended(address,uint256[],bytes[],uint16[])":"b7f494a4","configureFeatureGateway(address)":"f7194138","decimals()":"313ce567","isAuthorized(address,uint256)":"2972b0f0","isSelf(address,uint256)":"20bfe342","messageProcess(uint256,uint256,address,address,uint256,bytes)":"5f46e740","name()":"06fdde03","owner()":"8da5cb5b","poolManager()":"dc4c90d3","rate()":"2c4e722e","recoverToken(address,uint256)":"b29a8140","renounceOwnership()":"715018a6","setExsig(address)":"c60853f6","setMaxfee(uint256)":"b479a961","setMaxgas(uint256)":"e47ad74d","symbol()":"95d89b41","testMint(address,uint256)":"f28e093d","totalSupply()":"18160ddd","transfer(address,uint256)":"a9059cbb","transferFrom(address,address,uint256)":"23b872dd","transferMessageOwnership(address)":"559b2f65","transferOwnership(address)":"f2fde38b","updateRate(uint256,bytes32,bytes)":"0cdcb851"},"id":64}