{"abi":[{"type":"function","name":"UPGRADE_INTERFACE_VERSION","inputs":[],"outputs":[{"name":"","type":"string","internalType":"string"}],"stateMutability":"view"},{"type":"function","name":"allowance","inputs":[{"name":"owner","type":"address","internalType":"address"},{"name":"spender","type":"address","internalType":"address"}],"outputs":[{"name":"","type":"uint256","internalType":"uint256"}],"stateMutability":"view"},{"type":"function","name":"approve","inputs":[{"name":"spender","type":"address","internalType":"address"},{"name":"value","type":"uint256","internalType":"uint256"}],"outputs":[{"name":"","type":"bool","internalType":"bool"}],"stateMutability":"nonpayable"},{"type":"function","name":"balanceOf","inputs":[{"name":"account","type":"address","internalType":"address"}],"outputs":[{"name":"","type":"uint256","internalType":"uint256"}],"stateMutability":"view"},{"type":"function","name":"burn","inputs":[{"name":"amount","type":"uint256","internalType":"uint256"}],"outputs":[],"stateMutability":"nonpayable"},{"type":"function","name":"decimals","inputs":[],"outputs":[{"name":"","type":"uint8","internalType":"uint8"}],"stateMutability":"view"},{"type":"function","name":"initialize","inputs":[{"name":"_name","type":"string","internalType":"string"},{"name":"_symbol","type":"string","internalType":"string"},{"name":"_decimals","type":"uint8","internalType":"uint8"},{"name":"_initialSupply","type":"uint256","internalType":"uint256"}],"outputs":[],"stateMutability":"nonpayable"},{"type":"function","name":"mint","inputs":[{"name":"to","type":"address","internalType":"address"},{"name":"amount","type":"uint256","internalType":"uint256"}],"outputs":[],"stateMutability":"nonpayable"},{"type":"function","name":"name","inputs":[],"outputs":[{"name":"","type":"string","internalType":"string"}],"stateMutability":"view"},{"type":"function","name":"owner","inputs":[],"outputs":[{"name":"","type":"address","internalType":"address"}],"stateMutability":"view"},{"type":"function","name":"proxiableUUID","inputs":[],"outputs":[{"name":"","type":"bytes32","internalType":"bytes32"}],"stateMutability":"view"},{"type":"function","name":"renounceOwnership","inputs":[],"outputs":[],"stateMutability":"nonpayable"},{"type":"function","name":"symbol","inputs":[],"outputs":[{"name":"","type":"string","internalType":"string"}],"stateMutability":"view"},{"type":"function","name":"totalSupply","inputs":[],"outputs":[{"name":"","type":"uint256","internalType":"uint256"}],"stateMutability":"view"},{"type":"function","name":"transfer","inputs":[{"name":"to","type":"address","internalType":"address"},{"name":"value","type":"uint256","internalType":"uint256"}],"outputs":[{"name":"","type":"bool","internalType":"bool"}],"stateMutability":"nonpayable"},{"type":"function","name":"transferFrom","inputs":[{"name":"from","type":"address","internalType":"address"},{"name":"to","type":"address","internalType":"address"},{"name":"value","type":"uint256","internalType":"uint256"}],"outputs":[{"name":"","type":"bool","internalType":"bool"}],"stateMutability":"nonpayable"},{"type":"function","name":"transferOwnership","inputs":[{"name":"newOwner","type":"address","internalType":"address"}],"outputs":[],"stateMutability":"nonpayable"},{"type":"function","name":"upgradeToAndCall","inputs":[{"name":"newImplementation","type":"address","internalType":"address"},{"name":"data","type":"bytes","internalType":"bytes"}],"outputs":[],"stateMutability":"payable"},{"type":"event","name":"Approval","inputs":[{"name":"owner","type":"address","indexed":true,"internalType":"address"},{"name":"spender","type":"address","indexed":true,"internalType":"address"},{"name":"value","type":"uint256","indexed":false,"internalType":"uint256"}],"anonymous":false},{"type":"event","name":"Initialized","inputs":[{"name":"version","type":"uint64","indexed":false,"internalType":"uint64"}],"anonymous":false},{"type":"event","name":"OwnershipTransferred","inputs":[{"name":"previousOwner","type":"address","indexed":true,"internalType":"address"},{"name":"newOwner","type":"address","indexed":true,"internalType":"address"}],"anonymous":false},{"type":"event","name":"Transfer","inputs":[{"name":"from","type":"address","indexed":true,"internalType":"address"},{"name":"to","type":"address","indexed":true,"internalType":"address"},{"name":"value","type":"uint256","indexed":false,"internalType":"uint256"}],"anonymous":false},{"type":"event","name":"Upgraded","inputs":[{"name":"implementation","type":"address","indexed":true,"internalType":"address"}],"anonymous":false},{"type":"error","name":"AddressEmptyCode","inputs":[{"name":"target","type":"address","internalType":"address"}]},{"type":"error","name":"ERC1967InvalidImplementation","inputs":[{"name":"implementation","type":"address","internalType":"address"}]},{"type":"error","name":"ERC1967NonPayable","inputs":[]},{"type":"error","name":"ERC20InsufficientAllowance","inputs":[{"name":"spender","type":"address","internalType":"address"},{"name":"allowance","type":"uint256","internalType":"uint256"},{"name":"needed","type":"uint256","internalType":"uint256"}]},{"type":"error","name":"ERC20InsufficientBalance","inputs":[{"name":"sender","type":"address","internalType":"address"},{"name":"balance","type":"uint256","internalType":"uint256"},{"name":"needed","type":"uint256","internalType":"uint256"}]},{"type":"error","name":"ERC20InvalidApprover","inputs":[{"name":"approver","type":"address","internalType":"address"}]},{"type":"error","name":"ERC20InvalidReceiver","inputs":[{"name":"receiver","type":"address","internalType":"address"}]},{"type":"error","name":"ERC20InvalidSender","inputs":[{"name":"sender","type":"address","internalType":"address"}]},{"type":"error","name":"ERC20InvalidSpender","inputs":[{"name":"spender","type":"address","internalType":"address"}]},{"type":"error","name":"FailedCall","inputs":[]},{"type":"error","name":"InvalidInitialization","inputs":[]},{"type":"error","name":"NotInitializing","inputs":[]},{"type":"error","name":"OwnableInvalidOwner","inputs":[{"name":"owner","type":"address","internalType":"address"}]},{"type":"error","name":"OwnableUnauthorizedAccount","inputs":[{"name":"account","type":"address","internalType":"address"}]},{"type":"error","name":"UUPSUnauthorizedCallContext","inputs":[]},{"type":"error","name":"UUPSUnsupportedProxiableUUID","inputs":[{"name":"slot","type":"bytes32","internalType":"bytes32"}]}],"bytecode":{"object":"0x60a060405230608052348015601357600080fd5b506080516115aa61003d600039600081816108c4015281816108ed0152610a2e01526115aa6000f3fe6080604052600436106101095760003560e01c806352d1902d1161009557806395d89b411161006457806395d89b41146102f2578063a9059cbb14610307578063ad3cb1cc14610327578063dd62ed3e14610358578063f2fde38b1461037857600080fd5b806352d1902d1461025857806370a082311461026d578063715018a6146102b05780638da5cb5b146102c557600080fd5b8063253279ad116100dc578063253279ad146101c7578063313ce567146101e957806340c10f191461020557806342966c68146102255780634f1ef2861461024557600080fd5b806306fdde031461010e578063095ea7b31461013957806318160ddd1461016957806323b872dd146101a7575b600080fd5b34801561011a57600080fd5b50610123610398565b6040516101309190610fd1565b60405180910390f35b34801561014557600080fd5b50610159610154366004611020565b61045b565b6040519015158152602001610130565b34801561017557600080fd5b507f52c63247e1f47db19d5ce0460030c497f067ca4cebf71ba98eeadabe20bace02545b604051908152602001610130565b3480156101b357600080fd5b506101596101c236600461104a565b610475565b3480156101d357600080fd5b506101e76101e2366004611137565b61049b565b005b3480156101f557600080fd5b5060405160128152602001610130565b34801561021157600080fd5b506101e7610220366004611020565b6105d6565b34801561023157600080fd5b506101e76102403660046111c0565b6105ec565b6101e76102533660046111d9565b610601565b34801561026457600080fd5b5061019961061c565b34801561027957600080fd5b5061019961028836600461123b565b6001600160a01b03166000908152600080516020611535833981519152602052604090205490565b3480156102bc57600080fd5b506101e7610639565b3480156102d157600080fd5b506102da61064d565b6040516001600160a01b039091168152602001610130565b3480156102fe57600080fd5b50610123610685565b34801561031357600080fd5b50610159610322366004611020565b6106c4565b34801561033357600080fd5b50610123604051806040016040528060058152602001640352e302e360dc1b81525081565b34801561036457600080fd5b50610199610373366004611256565b6106d2565b34801561038457600080fd5b506101e761039336600461123b565b61071c565b7f52c63247e1f47db19d5ce0460030c497f067ca4cebf71ba98eeadabe20bace038054606091600080516020611535833981519152916103d790611289565b80601f016020809104026020016040519081016040528092919081815260200182805461040390611289565b80156104505780601f1061042557610100808354040283529160200191610450565b820191906000526020600020905b81548152906001019060200180831161043357829003601f168201915b505050505091505090565b60003361046981858561072d565b60019150505b92915050565b60003361048385828561073f565b61048e8585856107aa565b60019150505b9392505050565b7ff0c57e16840df040f15088dc2f81fe391c3923bec73e23a9662efc9c229c6a008054600160401b810460ff16159067ffffffffffffffff166000811580156104e15750825b905060008267ffffffffffffffff1660011480156104fe5750303b155b90508115801561050c575080155b1561052a5760405163f92ee8a960e01b815260040160405180910390fd5b845467ffffffffffffffff19166001178555831561055457845460ff60401b1916600160401b1785555b61055d3361071c565b6105678989610809565b6105853361057689600a6113c0565b61058090896113cf565b61081b565b83156105cb57845460ff60401b19168555604051600181527fc7f505b2f371ae2175ee4913f4499e1f2633a7b5936321eed1cdaeb6115181d29060200160405180910390a15b505050505050505050565b6105de610851565b6105e8828261081b565b5050565b6105f4610851565b6105fe3382610883565b50565b6106096108b9565b6106128261095e565b6105e88282610966565b6000610626610a23565b5060008051602061155583398151915290565b610641610851565b61064b6000610a6c565b565b60006106807f9016d09d72d40fdae2fd8ceac6b6234c7706214fd39c1cd1e609a0528c199300546001600160a01b031690565b905090565b7f52c63247e1f47db19d5ce0460030c497f067ca4cebf71ba98eeadabe20bace048054606091600080516020611535833981519152916103d790611289565b6000336104698185856107aa565b6001600160a01b0391821660009081527f52c63247e1f47db19d5ce0460030c497f067ca4cebf71ba98eeadabe20bace016020908152604080832093909416825291909152205490565b610724610851565b6105fe81610add565b61073a8383836001610b18565b505050565b600061074b84846106d2565b905060001981146107a4578181101561079557604051637dc7a0d960e11b81526001600160a01b038416600482015260248101829052604481018390526064015b60405180910390fd5b6107a484848484036000610b18565b50505050565b6001600160a01b0383166107d457604051634b637e8f60e11b81526000600482015260240161078c565b6001600160a01b0382166107fe5760405163ec442f0560e01b81526000600482015260240161078c565b61073a838383610c00565b610811610d3e565b6105e88282610d87565b6001600160a01b0382166108455760405163ec442f0560e01b81526000600482015260240161078c565b6105e860008383610c00565b3361085a61064d565b6001600160a01b03161461064b5760405163118cdaa760e01b815233600482015260240161078c565b6001600160a01b0382166108ad57604051634b637e8f60e11b81526000600482015260240161078c565b6105e882600083610c00565b306001600160a01b037f000000000000000000000000000000000000000000000000000000000000000016148061094057507f00000000000000000000000000000000000000000000000000000000000000006001600160a01b0316610934600080516020611555833981519152546001600160a01b031690565b6001600160a01b031614155b1561064b5760405163703e46dd60e11b815260040160405180910390fd5b6105fe610851565b816001600160a01b03166352d1902d6040518163ffffffff1660e01b8152600401602060405180830381865afa9250505080156109c0575060408051601f3d908101601f191682019092526109bd918101906113e6565b60015b6109e857604051634c9c8ce360e01b81526001600160a01b038316600482015260240161078c565b6000805160206115558339815191528114610a1957604051632a87526960e21b81526004810182905260240161078c565b61073a8383610dd8565b306001600160a01b037f0000000000000000000000000000000000000000000000000000000000000000161461064b5760405163703e46dd60e11b815260040160405180910390fd5b7f9016d09d72d40fdae2fd8ceac6b6234c7706214fd39c1cd1e609a0528c19930080546001600160a01b031981166001600160a01b03848116918217845560405192169182907f8be0079c531659141344cd1fd0a4f28419497f9722a3daafe3b4186f6b6457e090600090a3505050565b610ae5610851565b6001600160a01b038116610b0f57604051631e4fbdf760e01b81526000600482015260240161078c565b6105fe81610a6c565b6000805160206115358339815191526001600160a01b038516610b515760405163e602df0560e01b81526000600482015260240161078c565b6001600160a01b038416610b7b57604051634a1406b160e11b81526000600482015260240161078c565b6001600160a01b03808616600090815260018301602090815260408083209388168352929052208390558115610bf957836001600160a01b0316856001600160a01b03167f8c5be1e5ebec7d5bd14f71427d1e84f3dd0314c0f7b2291e5b200ac8c7c3b92585604051610bf091815260200190565b60405180910390a35b5050505050565b6000805160206115358339815191526001600160a01b038416610c3c5781816002016000828254610c3191906113ff565b90915550610cae9050565b6001600160a01b03841660009081526020829052604090205482811015610c8f5760405163391434e360e21b81526001600160a01b0386166004820152602481018290526044810184905260640161078c565b6001600160a01b03851660009081526020839052604090209083900390555b6001600160a01b038316610ccc576002810180548390039055610ceb565b6001600160a01b03831660009081526020829052604090208054830190555b826001600160a01b0316846001600160a01b03167fddf252ad1be2c89b69c2b068fc378daa952ba7f163c4a11628f55a4df523b3ef84604051610d3091815260200190565b60405180910390a350505050565b7ff0c57e16840df040f15088dc2f81fe391c3923bec73e23a9662efc9c229c6a0054600160401b900460ff1661064b57604051631afcd79f60e31b815260040160405180910390fd5b610d8f610d3e565b6000805160206115358339815191527f52c63247e1f47db19d5ce0460030c497f067ca4cebf71ba98eeadabe20bace03610dc98482611459565b50600481016107a48382611459565b610de182610e2e565b6040516001600160a01b038316907fbc7cd75a20ee27fd9adebab32041f755214dbc6bffa90cc0225b39da2e5c2d3b90600090a2805115610e265761073a8282610e93565b6105e8610f09565b806001600160a01b03163b600003610e6457604051634c9c8ce360e01b81526001600160a01b038216600482015260240161078c565b60008051602061155583398151915280546001600160a01b0319166001600160a01b0392909216919091179055565b6060600080846001600160a01b031684604051610eb09190611518565b600060405180830381855af49150503d8060008114610eeb576040519150601f19603f3d011682016040523d82523d6000602084013e610ef0565b606091505b5091509150610f00858383610f28565b95945050505050565b341561064b5760405163b398979f60e01b815260040160405180910390fd5b606082610f3d57610f3882610f84565b610494565b8151158015610f5457506001600160a01b0384163b155b15610f7d57604051639996b31560e01b81526001600160a01b038516600482015260240161078c565b5080610494565b805115610f945780518082602001fd5b60405163d6bda27560e01b815260040160405180910390fd5b60005b83811015610fc8578181015183820152602001610fb0565b50506000910152565b6020815260008251806020840152610ff0816040850160208701610fad565b601f01601f19169190910160400192915050565b80356001600160a01b038116811461101b57600080fd5b919050565b6000806040838503121561103357600080fd5b61103c83611004565b946020939093013593505050565b60008060006060848603121561105f57600080fd5b61106884611004565b925061107660208501611004565b929592945050506040919091013590565b634e487b7160e01b600052604160045260246000fd5b60008067ffffffffffffffff8411156110b8576110b8611087565b50604051601f19601f85018116603f0116810181811067ffffffffffffffff821117156110e7576110e7611087565b6040528381529050808284018510156110ff57600080fd5b83836020830137600060208583010152509392505050565b600082601f83011261112857600080fd5b6104948383356020850161109d565b6000806000806080858703121561114d57600080fd5b843567ffffffffffffffff81111561116457600080fd5b61117087828801611117565b945050602085013567ffffffffffffffff81111561118d57600080fd5b61119987828801611117565b935050604085013560ff811681146111b057600080fd5b9396929550929360600135925050565b6000602082840312156111d257600080fd5b5035919050565b600080604083850312156111ec57600080fd5b6111f583611004565b9150602083013567ffffffffffffffff81111561121157600080fd5b8301601f8101851361122257600080fd5b6112318582356020840161109d565b9150509250929050565b60006020828403121561124d57600080fd5b61049482611004565b6000806040838503121561126957600080fd5b61127283611004565b915061128060208401611004565b90509250929050565b600181811c9082168061129d57607f821691505b6020821081036112bd57634e487b7160e01b600052602260045260246000fd5b50919050565b634e487b7160e01b600052601160045260246000fd5b6001815b6001841115611314578085048111156112f8576112f86112c3565b600184161561130657908102905b60019390931c9280026112dd565b935093915050565b60008261132b5750600161046f565b816113385750600061046f565b816001811461134e576002811461135857611374565b600191505061046f565b60ff841115611369576113696112c3565b50506001821b61046f565b5060208310610133831016604e8410600b8410161715611397575081810a61046f565b6113a460001984846112d9565b80600019048211156113b8576113b86112c3565b029392505050565b600061049460ff84168361131c565b808202811582820484141761046f5761046f6112c3565b6000602082840312156113f857600080fd5b5051919050565b8082018082111561046f5761046f6112c3565b601f82111561073a57806000526020600020601f840160051c810160208510156114395750805b601f840160051c820191505b81811015610bf95760008155600101611445565b815167ffffffffffffffff81111561147357611473611087565b611487816114818454611289565b84611412565b6020601f8211600181146114bb57600083156114a35750848201515b600019600385901b1c1916600184901b178455610bf9565b600084815260208120601f198516915b828110156114eb57878501518255602094850194600190920191016114cb565b50848210156115095786840151600019600387901b60f8161c191681555b50505050600190811b01905550565b6000825161152a818460208701610fad565b919091019291505056fe52c63247e1f47db19d5ce0460030c497f067ca4cebf71ba98eeadabe20bace00360894a13ba1a3210667c828492db98dca3e2076cc3735a920a3ca505d382bbca26469706673582212205a09520f5f26d7318a810603979297aa48df4749e870cf3fb01f2498d57da4c064736f6c634300081a0033","linkReferences":{}},"methodIdentifiers":{"UPGRADE_INTERFACE_VERSION()":"ad3cb1cc","allowance(address,address)":"dd62ed3e","approve(address,uint256)":"095ea7b3","balanceOf(address)":"70a08231","burn(uint256)":"42966c68","decimals()":"313ce567","initialize(string,string,uint8,uint256)":"253279ad","mint(address,uint256)":"40c10f19","name()":"06fdde03","owner()":"8da5cb5b","proxiableUUID()":"52d1902d","renounceOwnership()":"715018a6","symbol()":"95d89b41","totalSupply()":"18160ddd","transfer(address,uint256)":"a9059cbb","transferFrom(address,address,uint256)":"23b872dd","transferOwnership(address)":"f2fde38b","upgradeToAndCall(address,bytes)":"4f1ef286"},"id":47}