{"abi":[{"type":"function","name":"UPGRADE_INTERFACE_VERSION","inputs":[],"outputs":[{"name":"","type":"string","internalType":"string"}],"stateMutability":"view"},{"type":"function","name":"allowance","inputs":[{"name":"owner","type":"address","internalType":"address"},{"name":"spender","type":"address","internalType":"address"}],"outputs":[{"name":"","type":"uint256","internalType":"uint256"}],"stateMutability":"view"},{"type":"function","name":"approve","inputs":[{"name":"spender","type":"address","internalType":"address"},{"name":"value","type":"uint256","internalType":"uint256"}],"outputs":[{"name":"","type":"bool","internalType":"bool"}],"stateMutability":"nonpayable"},{"type":"function","name":"balanceOf","inputs":[{"name":"account","type":"address","internalType":"address"}],"outputs":[{"name":"","type":"uint256","internalType":"uint256"}],"stateMutability":"view"},{"type":"function","name":"burn","inputs":[{"name":"amount","type":"uint256","internalType":"uint256"}],"outputs":[],"stateMutability":"nonpayable"},{"type":"function","name":"decimals","inputs":[],"outputs":[{"name":"","type":"uint8","internalType":"uint8"}],"stateMutability":"view"},{"type":"function","name":"initialize","inputs":[{"name":"_name","type":"string","internalType":"string"},{"name":"_symbol","type":"string","internalType":"string"},{"name":"_decimals","type":"uint8","internalType":"uint8"},{"name":"_initialSupply","type":"uint256","internalType":"uint256"}],"outputs":[],"stateMutability":"nonpayable"},{"type":"function","name":"mint","inputs":[{"name":"to","type":"address","internalType":"address"},{"name":"amount","type":"uint256","internalType":"uint256"}],"outputs":[],"stateMutability":"nonpayable"},{"type":"function","name":"name","inputs":[],"outputs":[{"name":"","type":"string","internalType":"string"}],"stateMutability":"view"},{"type":"function","name":"owner","inputs":[],"outputs":[{"name":"","type":"address","internalType":"address"}],"stateMutability":"view"},{"type":"function","name":"proxiableUUID","inputs":[],"outputs":[{"name":"","type":"bytes32","internalType":"bytes32"}],"stateMutability":"view"},{"type":"function","name":"renounceOwnership","inputs":[],"outputs":[],"stateMutability":"nonpayable"},{"type":"function","name":"setOwner","inputs":[{"name":"_owner","type":"address","internalType":"address"}],"outputs":[],"stateMutability":"nonpayable"},{"type":"function","name":"symbol","inputs":[],"outputs":[{"name":"","type":"string","internalType":"string"}],"stateMutability":"view"},{"type":"function","name":"totalSupply","inputs":[],"outputs":[{"name":"","type":"uint256","internalType":"uint256"}],"stateMutability":"view"},{"type":"function","name":"transfer","inputs":[{"name":"to","type":"address","internalType":"address"},{"name":"value","type":"uint256","internalType":"uint256"}],"outputs":[{"name":"","type":"bool","internalType":"bool"}],"stateMutability":"nonpayable"},{"type":"function","name":"transferFrom","inputs":[{"name":"from","type":"address","internalType":"address"},{"name":"to","type":"address","internalType":"address"},{"name":"value","type":"uint256","internalType":"uint256"}],"outputs":[{"name":"","type":"bool","internalType":"bool"}],"stateMutability":"nonpayable"},{"type":"function","name":"transferOwnership","inputs":[{"name":"newOwner","type":"address","internalType":"address"}],"outputs":[],"stateMutability":"nonpayable"},{"type":"function","name":"upgradeToAndCall","inputs":[{"name":"newImplementation","type":"address","internalType":"address"},{"name":"data","type":"bytes","internalType":"bytes"}],"outputs":[],"stateMutability":"payable"},{"type":"event","name":"Approval","inputs":[{"name":"owner","type":"address","indexed":true,"internalType":"address"},{"name":"spender","type":"address","indexed":true,"internalType":"address"},{"name":"value","type":"uint256","indexed":false,"internalType":"uint256"}],"anonymous":false},{"type":"event","name":"Initialized","inputs":[{"name":"version","type":"uint64","indexed":false,"internalType":"uint64"}],"anonymous":false},{"type":"event","name":"OwnershipTransferred","inputs":[{"name":"previousOwner","type":"address","indexed":true,"internalType":"address"},{"name":"newOwner","type":"address","indexed":true,"internalType":"address"}],"anonymous":false},{"type":"event","name":"Transfer","inputs":[{"name":"from","type":"address","indexed":true,"internalType":"address"},{"name":"to","type":"address","indexed":true,"internalType":"address"},{"name":"value","type":"uint256","indexed":false,"internalType":"uint256"}],"anonymous":false},{"type":"event","name":"Upgraded","inputs":[{"name":"implementation","type":"address","indexed":true,"internalType":"address"}],"anonymous":false},{"type":"error","name":"AddressEmptyCode","inputs":[{"name":"target","type":"address","internalType":"address"}]},{"type":"error","name":"ERC1967InvalidImplementation","inputs":[{"name":"implementation","type":"address","internalType":"address"}]},{"type":"error","name":"ERC1967NonPayable","inputs":[]},{"type":"error","name":"ERC20InsufficientAllowance","inputs":[{"name":"spender","type":"address","internalType":"address"},{"name":"allowance","type":"uint256","internalType":"uint256"},{"name":"needed","type":"uint256","internalType":"uint256"}]},{"type":"error","name":"ERC20InsufficientBalance","inputs":[{"name":"sender","type":"address","internalType":"address"},{"name":"balance","type":"uint256","internalType":"uint256"},{"name":"needed","type":"uint256","internalType":"uint256"}]},{"type":"error","name":"ERC20InvalidApprover","inputs":[{"name":"approver","type":"address","internalType":"address"}]},{"type":"error","name":"ERC20InvalidReceiver","inputs":[{"name":"receiver","type":"address","internalType":"address"}]},{"type":"error","name":"ERC20InvalidSender","inputs":[{"name":"sender","type":"address","internalType":"address"}]},{"type":"error","name":"ERC20InvalidSpender","inputs":[{"name":"spender","type":"address","internalType":"address"}]},{"type":"error","name":"FailedCall","inputs":[]},{"type":"error","name":"InvalidInitialization","inputs":[]},{"type":"error","name":"NotInitializing","inputs":[]},{"type":"error","name":"OwnableInvalidOwner","inputs":[{"name":"owner","type":"address","internalType":"address"}]},{"type":"error","name":"OwnableUnauthorizedAccount","inputs":[{"name":"account","type":"address","internalType":"address"}]},{"type":"error","name":"UUPSUnauthorizedCallContext","inputs":[]},{"type":"error","name":"UUPSUnsupportedProxiableUUID","inputs":[{"name":"slot","type":"bytes32","internalType":"bytes32"}]}],"bytecode":{"object":"0x60a060405230608052348015601357600080fd5b5060805161163861003d600039600081816109520152818161097b0152610abc01526116386000f3fe6080604052600436106101145760003560e01c80634f1ef286116100a057806395d89b411161006457806395d89b411461031d578063a9059cbb14610332578063ad3cb1cc14610352578063dd62ed3e14610383578063f2fde38b146103a357600080fd5b80634f1ef2861461027057806352d1902d1461028357806370a0823114610298578063715018a6146102db5780638da5cb5b146102f057600080fd5b806323b872dd116100e757806323b872dd146101d4578063253279ad146101f4578063313ce5671461021457806340c10f191461023057806342966c681461025057600080fd5b806306fdde0314610119578063095ea7b31461014457806313af40351461017457806318160ddd14610196575b600080fd5b34801561012557600080fd5b5061012e6103c3565b60405161013b919061105f565b60405180910390f35b34801561015057600080fd5b5061016461015f3660046110ae565b610486565b604051901515815260200161013b565b34801561018057600080fd5b5061019461018f3660046110d8565b6104a0565b005b3480156101a257600080fd5b507f52c63247e1f47db19d5ce0460030c497f067ca4cebf71ba98eeadabe20bace02545b60405190815260200161013b565b3480156101e057600080fd5b506101646101ef3660046110f3565b610511565b34801561020057600080fd5b5061019461020f3660046111e0565b610537565b34801561022057600080fd5b506040516012815260200161013b565b34801561023c57600080fd5b5061019461024b3660046110ae565b610669565b34801561025c57600080fd5b5061019461026b366004611269565b61067f565b61019461027e366004611282565b610694565b34801561028f57600080fd5b506101c66106af565b3480156102a457600080fd5b506101c66102b33660046110d8565b6001600160a01b031660009081526000805160206115c3833981519152602052604090205490565b3480156102e757600080fd5b506101946106cc565b3480156102fc57600080fd5b506103056106e0565b6040516001600160a01b03909116815260200161013b565b34801561032957600080fd5b5061012e610718565b34801561033e57600080fd5b5061016461034d3660046110ae565b610757565b34801561035e57600080fd5b5061012e604051806040016040528060058152602001640352e302e360dc1b81525081565b34801561038f57600080fd5b506101c661039e3660046112e4565b610765565b3480156103af57600080fd5b506101946103be3660046110d8565b6107af565b7f52c63247e1f47db19d5ce0460030c497f067ca4cebf71ba98eeadabe20bace0380546060916000805160206115c38339815191529161040290611317565b80601f016020809104026020016040519081016040528092919081815260200182805461042e90611317565b801561047b5780601f106104505761010080835404028352916020019161047b565b820191906000526020600020905b81548152906001019060200180831161045e57829003601f168201915b505050505091505090565b6000336104948185856107c0565b60019150505b92915050565b60005460ff16156104f85760405162461bcd60e51b815260206004820152601f60248201527f436f6e747261637420697320616c726561647920696e697469616c697a65640060448201526064015b60405180910390fd5b610501816107af565b506000805460ff19166001179055565b60003361051f8582856107d2565b61052a858585610838565b60019150505b9392505050565b7ff0c57e16840df040f15088dc2f81fe391c3923bec73e23a9662efc9c229c6a008054600160401b810460ff16159067ffffffffffffffff1660008115801561057d5750825b905060008267ffffffffffffffff16600114801561059a5750303b155b9050811580156105a8575080155b156105c65760405163f92ee8a960e01b815260040160405180910390fd5b845467ffffffffffffffff1916600117855583156105f057845460ff60401b1916600160401b1785555b6105fa8989610897565b6106183361060989600a61144e565b610613908961145d565b6108a9565b831561065e57845460ff60401b19168555604051600181527fc7f505b2f371ae2175ee4913f4499e1f2633a7b5936321eed1cdaeb6115181d29060200160405180910390a15b505050505050505050565b6106716108df565b61067b82826108a9565b5050565b6106876108df565b6106913382610911565b50565b61069c610947565b6106a5826109ec565b61067b82826109f4565b60006106b9610ab1565b506000805160206115e383398151915290565b6106d46108df565b6106de6000610afa565b565b60006107137f9016d09d72d40fdae2fd8ceac6b6234c7706214fd39c1cd1e609a0528c199300546001600160a01b031690565b905090565b7f52c63247e1f47db19d5ce0460030c497f067ca4cebf71ba98eeadabe20bace0480546060916000805160206115c38339815191529161040290611317565b600033610494818585610838565b6001600160a01b0391821660009081527f52c63247e1f47db19d5ce0460030c497f067ca4cebf71ba98eeadabe20bace016020908152604080832093909416825291909152205490565b6107b76108df565b61069181610b6b565b6107cd8383836001610ba6565b505050565b60006107de8484610765565b90506000198114610832578181101561082357604051637dc7a0d960e11b81526001600160a01b038416600482015260248101829052604481018390526064016104ef565b61083284848484036000610ba6565b50505050565b6001600160a01b03831661086257604051634b637e8f60e11b8152600060048201526024016104ef565b6001600160a01b03821661088c5760405163ec442f0560e01b8152600060048201526024016104ef565b6107cd838383610c8e565b61089f610dcc565b61067b8282610e15565b6001600160a01b0382166108d35760405163ec442f0560e01b8152600060048201526024016104ef565b61067b60008383610c8e565b336108e86106e0565b6001600160a01b0316146106de5760405163118cdaa760e01b81523360048201526024016104ef565b6001600160a01b03821661093b57604051634b637e8f60e11b8152600060048201526024016104ef565b61067b82600083610c8e565b306001600160a01b037f00000000000000000000000000000000000000000000000000000000000000001614806109ce57507f00000000000000000000000000000000000000000000000000000000000000006001600160a01b03166109c26000805160206115e3833981519152546001600160a01b031690565b6001600160a01b031614155b156106de5760405163703e46dd60e11b815260040160405180910390fd5b6106916108df565b816001600160a01b03166352d1902d6040518163ffffffff1660e01b8152600401602060405180830381865afa925050508015610a4e575060408051601f3d908101601f19168201909252610a4b91810190611474565b60015b610a7657604051634c9c8ce360e01b81526001600160a01b03831660048201526024016104ef565b6000805160206115e38339815191528114610aa757604051632a87526960e21b8152600481018290526024016104ef565b6107cd8383610e66565b306001600160a01b037f000000000000000000000000000000000000000000000000000000000000000016146106de5760405163703e46dd60e11b815260040160405180910390fd5b7f9016d09d72d40fdae2fd8ceac6b6234c7706214fd39c1cd1e609a0528c19930080546001600160a01b031981166001600160a01b03848116918217845560405192169182907f8be0079c531659141344cd1fd0a4f28419497f9722a3daafe3b4186f6b6457e090600090a3505050565b610b736108df565b6001600160a01b038116610b9d57604051631e4fbdf760e01b8152600060048201526024016104ef565b61069181610afa565b6000805160206115c38339815191526001600160a01b038516610bdf5760405163e602df0560e01b8152600060048201526024016104ef565b6001600160a01b038416610c0957604051634a1406b160e11b8152600060048201526024016104ef565b6001600160a01b03808616600090815260018301602090815260408083209388168352929052208390558115610c8757836001600160a01b0316856001600160a01b03167f8c5be1e5ebec7d5bd14f71427d1e84f3dd0314c0f7b2291e5b200ac8c7c3b92585604051610c7e91815260200190565b60405180910390a35b5050505050565b6000805160206115c38339815191526001600160a01b038416610cca5781816002016000828254610cbf919061148d565b90915550610d3c9050565b6001600160a01b03841660009081526020829052604090205482811015610d1d5760405163391434e360e21b81526001600160a01b038616600482015260248101829052604481018490526064016104ef565b6001600160a01b03851660009081526020839052604090209083900390555b6001600160a01b038316610d5a576002810180548390039055610d79565b6001600160a01b03831660009081526020829052604090208054830190555b826001600160a01b0316846001600160a01b03167fddf252ad1be2c89b69c2b068fc378daa952ba7f163c4a11628f55a4df523b3ef84604051610dbe91815260200190565b60405180910390a350505050565b7ff0c57e16840df040f15088dc2f81fe391c3923bec73e23a9662efc9c229c6a0054600160401b900460ff166106de57604051631afcd79f60e31b815260040160405180910390fd5b610e1d610dcc565b6000805160206115c38339815191527f52c63247e1f47db19d5ce0460030c497f067ca4cebf71ba98eeadabe20bace03610e5784826114e7565b506004810161083283826114e7565b610e6f82610ebc565b6040516001600160a01b038316907fbc7cd75a20ee27fd9adebab32041f755214dbc6bffa90cc0225b39da2e5c2d3b90600090a2805115610eb4576107cd8282610f21565b61067b610f97565b806001600160a01b03163b600003610ef257604051634c9c8ce360e01b81526001600160a01b03821660048201526024016104ef565b6000805160206115e383398151915280546001600160a01b0319166001600160a01b0392909216919091179055565b6060600080846001600160a01b031684604051610f3e91906115a6565b600060405180830381855af49150503d8060008114610f79576040519150601f19603f3d011682016040523d82523d6000602084013e610f7e565b606091505b5091509150610f8e858383610fb6565b95945050505050565b34156106de5760405163b398979f60e01b815260040160405180910390fd5b606082610fcb57610fc682611012565b610530565b8151158015610fe257506001600160a01b0384163b155b1561100b57604051639996b31560e01b81526001600160a01b03851660048201526024016104ef565b5080610530565b8051156110225780518082602001fd5b60405163d6bda27560e01b815260040160405180910390fd5b60005b8381101561105657818101518382015260200161103e565b50506000910152565b602081526000825180602084015261107e81604085016020870161103b565b601f01601f19169190910160400192915050565b80356001600160a01b03811681146110a957600080fd5b919050565b600080604083850312156110c157600080fd5b6110ca83611092565b946020939093013593505050565b6000602082840312156110ea57600080fd5b61053082611092565b60008060006060848603121561110857600080fd5b61111184611092565b925061111f60208501611092565b929592945050506040919091013590565b634e487b7160e01b600052604160045260246000fd5b60008067ffffffffffffffff84111561116157611161611130565b50604051601f19601f85018116603f0116810181811067ffffffffffffffff8211171561119057611190611130565b6040528381529050808284018510156111a857600080fd5b83836020830137600060208583010152509392505050565b600082601f8301126111d157600080fd5b61053083833560208501611146565b600080600080608085870312156111f657600080fd5b843567ffffffffffffffff81111561120d57600080fd5b611219878288016111c0565b945050602085013567ffffffffffffffff81111561123657600080fd5b611242878288016111c0565b935050604085013560ff8116811461125957600080fd5b9396929550929360600135925050565b60006020828403121561127b57600080fd5b5035919050565b6000806040838503121561129557600080fd5b61129e83611092565b9150602083013567ffffffffffffffff8111156112ba57600080fd5b8301601f810185136112cb57600080fd5b6112da85823560208401611146565b9150509250929050565b600080604083850312156112f757600080fd5b61130083611092565b915061130e60208401611092565b90509250929050565b600181811c9082168061132b57607f821691505b60208210810361134b57634e487b7160e01b600052602260045260246000fd5b50919050565b634e487b7160e01b600052601160045260246000fd5b6001815b60018411156113a25780850481111561138657611386611351565b600184161561139457908102905b60019390931c92800261136b565b935093915050565b6000826113b95750600161049a565b816113c65750600061049a565b81600181146113dc57600281146113e657611402565b600191505061049a565b60ff8411156113f7576113f7611351565b50506001821b61049a565b5060208310610133831016604e8410600b8410161715611425575081810a61049a565b6114326000198484611367565b806000190482111561144657611446611351565b029392505050565b600061053060ff8416836113aa565b808202811582820484141761049a5761049a611351565b60006020828403121561148657600080fd5b5051919050565b8082018082111561049a5761049a611351565b601f8211156107cd57806000526020600020601f840160051c810160208510156114c75750805b601f840160051c820191505b81811015610c8757600081556001016114d3565b815167ffffffffffffffff81111561150157611501611130565b6115158161150f8454611317565b846114a0565b6020601f82116001811461154957600083156115315750848201515b600019600385901b1c1916600184901b178455610c87565b600084815260208120601f198516915b828110156115795787850151825560209485019460019092019101611559565b50848210156115975786840151600019600387901b60f8161c191681555b50505050600190811b01905550565b600082516115b881846020870161103b565b919091019291505056fe52c63247e1f47db19d5ce0460030c497f067ca4cebf71ba98eeadabe20bace00360894a13ba1a3210667c828492db98dca3e2076cc3735a920a3ca505d382bbca26469706673582212209e4164120e530cf925a2195ffeafe43920e2ebc1fbbc7f3accc6a273d350ef4864736f6c634300081a0033","linkReferences":{}},"methodIdentifiers":{"UPGRADE_INTERFACE_VERSION()":"ad3cb1cc","allowance(address,address)":"dd62ed3e","approve(address,uint256)":"095ea7b3","balanceOf(address)":"70a08231","burn(uint256)":"42966c68","decimals()":"313ce567","initialize(string,string,uint8,uint256)":"253279ad","mint(address,uint256)":"40c10f19","name()":"06fdde03","owner()":"8da5cb5b","proxiableUUID()":"52d1902d","renounceOwnership()":"715018a6","setOwner(address)":"13af4035","symbol()":"95d89b41","totalSupply()":"18160ddd","transfer(address,uint256)":"a9059cbb","transferFrom(address,address,uint256)":"23b872dd","transferOwnership(address)":"f2fde38b","upgradeToAndCall(address,bytes)":"4f1ef286"},"id":70}