{
  "address": "0x0135c25Bd3e88b1aac5FDC6f16FEe2C63d967f9d",
  "abi": [
    {
      "inputs": [],
      "stateMutability": "nonpayable",
      "type": "constructor"
    },
    {
      "anonymous": false,
      "inputs": [
        {
          "indexed": true,
          "internalType": "address",
          "name": "owner",
          "type": "address"
        },
        {
          "indexed": true,
          "internalType": "address",
          "name": "spender",
          "type": "address"
        },
        {
          "indexed": false,
          "internalType": "uint256",
          "name": "value",
          "type": "uint256"
        }
      ],
      "name": "Approval",
      "type": "event"
    },
    {
      "anonymous": false,
      "inputs": [
        {
          "indexed": false,
          "internalType": "address",
          "name": "previousOwner",
          "type": "address"
        },
        {
          "indexed": false,
          "internalType": "address",
          "name": "newOwner",
          "type": "address"
        }
      ],
      "name": "MessageOwnershipTransferred",
      "type": "event"
    },
    {
      "anonymous": false,
      "inputs": [
        {
          "indexed": false,
          "internalType": "address",
          "name": "owner",
          "type": "address"
        },
        {
          "indexed": false,
          "internalType": "address",
          "name": "token",
          "type": "address"
        },
        {
          "indexed": false,
          "internalType": "uint256",
          "name": "amount",
          "type": "uint256"
        }
      ],
      "name": "RecoverToken",
      "type": "event"
    },
    {
      "anonymous": false,
      "inputs": [
        {
          "indexed": false,
          "internalType": "uint256",
          "name": "txId",
          "type": "uint256"
        },
        {
          "indexed": false,
          "internalType": "uint256",
          "name": "destinationChainId",
          "type": "uint256"
        },
        {
          "indexed": false,
          "internalType": "uint32",
          "name": "featureId",
          "type": "uint32"
        },
        {
          "indexed": false,
          "internalType": "bytes",
          "name": "featureData",
          "type": "bytes"
        }
      ],
      "name": "SendMessageWithFeature",
      "type": "event"
    },
    {
      "anonymous": false,
      "inputs": [
        {
          "indexed": false,
          "internalType": "address",
          "name": "owner",
          "type": "address"
        },
        {
          "indexed": false,
          "internalType": "address",
          "name": "exsig",
          "type": "address"
        }
      ],
      "name": "SetExsig",
      "type": "event"
    },
    {
      "anonymous": false,
      "inputs": [
        {
          "indexed": false,
          "internalType": "address",
          "name": "owner",
          "type": "address"
        },
        {
          "indexed": false,
          "internalType": "uint256",
          "name": "maxfee",
          "type": "uint256"
        }
      ],
      "name": "SetMaxfee",
      "type": "event"
    },
    {
      "anonymous": false,
      "inputs": [
        {
          "indexed": false,
          "internalType": "address",
          "name": "owner",
          "type": "address"
        },
        {
          "indexed": false,
          "internalType": "uint256",
          "name": "maxGas",
          "type": "uint256"
        }
      ],
      "name": "SetMaxgas",
      "type": "event"
    },
    {
      "anonymous": false,
      "inputs": [
        {
          "indexed": true,
          "internalType": "address",
          "name": "from",
          "type": "address"
        },
        {
          "indexed": true,
          "internalType": "address",
          "name": "to",
          "type": "address"
        },
        {
          "indexed": false,
          "internalType": "uint256",
          "name": "value",
          "type": "uint256"
        }
      ],
      "name": "Transfer",
      "type": "event"
    },
    {
      "stateMutability": "payable",
      "type": "fallback"
    },
    {
      "inputs": [
        {
          "internalType": "uint256",
          "name": "",
          "type": "uint256"
        }
      ],
      "name": "CHAINS",
      "outputs": [
        {
          "internalType": "address",
          "name": "endpoint",
          "type": "address"
        },
        {
          "internalType": "bytes",
          "name": "endpointExtended",
          "type": "bytes"
        },
        {
          "internalType": "uint16",
          "name": "confirmations",
          "type": "uint16"
        },
        {
          "internalType": "bool",
          "name": "extended",
          "type": "bool"
        }
      ],
      "stateMutability": "view",
      "type": "function"
    },
    {
      "inputs": [
        {
          "internalType": "uint256",
          "name": "",
          "type": "uint256"
        },
        {
          "internalType": "uint32",
          "name": "",
          "type": "uint32"
        }
      ],
      "name": "FEATURES",
      "outputs": [
        {
          "internalType": "address",
          "name": "endpoint",
          "type": "address"
        },
        {
          "internalType": "bytes",
          "name": "endpointExtended",
          "type": "bytes"
        },
        {
          "internalType": "uint16",
          "name": "confirmations",
          "type": "uint16"
        },
        {
          "internalType": "bool",
          "name": "extended",
          "type": "bool"
        }
      ],
      "stateMutability": "view",
      "type": "function"
    },
    {
      "inputs": [],
      "name": "FEATURE_GATEWAY",
      "outputs": [
        {
          "internalType": "contract IFeatureGateway",
          "name": "",
          "type": "address"
        }
      ],
      "stateMutability": "view",
      "type": "function"
    },
    {
      "inputs": [],
      "name": "FEE_TOKEN",
      "outputs": [
        {
          "internalType": "contract IERC20cl",
          "name": "",
          "type": "address"
        }
      ],
      "stateMutability": "view",
      "type": "function"
    },
    {
      "inputs": [],
      "name": "MESSAGE_OWNER",
      "outputs": [
        {
          "internalType": "address",
          "name": "",
          "type": "address"
        }
      ],
      "stateMutability": "view",
      "type": "function"
    },
    {
      "inputs": [],
      "name": "MESSAGEv3",
      "outputs": [
        {
          "internalType": "contract IMessageV3",
          "name": "",
          "type": "address"
        }
      ],
      "stateMutability": "view",
      "type": "function"
    },
    {
      "inputs": [
        {
          "internalType": "address",
          "name": "owner",
          "type": "address"
        },
        {
          "internalType": "address",
          "name": "spender",
          "type": "address"
        }
      ],
      "name": "allowance",
      "outputs": [
        {
          "internalType": "uint256",
          "name": "",
          "type": "uint256"
        }
      ],
      "stateMutability": "view",
      "type": "function"
    },
    {
      "inputs": [
        {
          "internalType": "address",
          "name": "spender",
          "type": "address"
        },
        {
          "internalType": "uint256",
          "name": "amount",
          "type": "uint256"
        }
      ],
      "name": "approve",
      "outputs": [
        {
          "internalType": "bool",
          "name": "",
          "type": "bool"
        }
      ],
      "stateMutability": "nonpayable",
      "type": "function"
    },
    {
      "inputs": [
        {
          "internalType": "address",
          "name": "account",
          "type": "address"
        }
      ],
      "name": "balanceOf",
      "outputs": [
        {
          "internalType": "uint256",
          "name": "",
          "type": "uint256"
        }
      ],
      "stateMutability": "view",
      "type": "function"
    },
    {
      "inputs": [
        {
          "internalType": "uint256",
          "name": "_destChainId",
          "type": "uint256"
        },
        {
          "internalType": "address",
          "name": "_recipient",
          "type": "address"
        },
        {
          "internalType": "uint256",
          "name": "_amount",
          "type": "uint256"
        }
      ],
      "name": "bridge",
      "outputs": [],
      "stateMutability": "nonpayable",
      "type": "function"
    },
    {
      "inputs": [
        {
          "internalType": "uint256",
          "name": "amount",
          "type": "uint256"
        }
      ],
      "name": "burn",
      "outputs": [],
      "stateMutability": "nonpayable",
      "type": "function"
    },
    {
      "inputs": [
        {
          "internalType": "address",
          "name": "account",
          "type": "address"
        },
        {
          "internalType": "uint256",
          "name": "amount",
          "type": "uint256"
        }
      ],
      "name": "burnFrom",
      "outputs": [],
      "stateMutability": "nonpayable",
      "type": "function"
    },
    {
      "inputs": [
        {
          "internalType": "address",
          "name": "_messageV3",
          "type": "address"
        },
        {
          "internalType": "uint256[]",
          "name": "_chains",
          "type": "uint256[]"
        },
        {
          "internalType": "address[]",
          "name": "_endpoints",
          "type": "address[]"
        },
        {
          "internalType": "uint16[]",
          "name": "_confirmations",
          "type": "uint16[]"
        }
      ],
      "name": "configureClient",
      "outputs": [],
      "stateMutability": "nonpayable",
      "type": "function"
    },
    {
      "inputs": [
        {
          "internalType": "address",
          "name": "_messageV3",
          "type": "address"
        },
        {
          "internalType": "uint256[]",
          "name": "_chains",
          "type": "uint256[]"
        },
        {
          "internalType": "bytes[]",
          "name": "_endpoints",
          "type": "bytes[]"
        },
        {
          "internalType": "uint16[]",
          "name": "_confirmations",
          "type": "uint16[]"
        }
      ],
      "name": "configureClientExtended",
      "outputs": [],
      "stateMutability": "nonpayable",
      "type": "function"
    },
    {
      "inputs": [
        {
          "internalType": "address",
          "name": "_featureGateway",
          "type": "address"
        }
      ],
      "name": "configureFeatureGateway",
      "outputs": [],
      "stateMutability": "nonpayable",
      "type": "function"
    },
    {
      "inputs": [],
      "name": "decimals",
      "outputs": [
        {
          "internalType": "uint8",
          "name": "",
          "type": "uint8"
        }
      ],
      "stateMutability": "view",
      "type": "function"
    },
    {
      "inputs": [
        {
          "internalType": "address",
          "name": "spender",
          "type": "address"
        },
        {
          "internalType": "uint256",
          "name": "subtractedValue",
          "type": "uint256"
        }
      ],
      "name": "decreaseAllowance",
      "outputs": [
        {
          "internalType": "bool",
          "name": "",
          "type": "bool"
        }
      ],
      "stateMutability": "nonpayable",
      "type": "function"
    },
    {
      "inputs": [
        {
          "internalType": "address",
          "name": "spender",
          "type": "address"
        },
        {
          "internalType": "uint256",
          "name": "addedValue",
          "type": "uint256"
        }
      ],
      "name": "increaseAllowance",
      "outputs": [
        {
          "internalType": "bool",
          "name": "",
          "type": "bool"
        }
      ],
      "stateMutability": "nonpayable",
      "type": "function"
    },
    {
      "inputs": [
        {
          "internalType": "address",
          "name": "_sender",
          "type": "address"
        },
        {
          "internalType": "uint256",
          "name": "_sourceChainId",
          "type": "uint256"
        }
      ],
      "name": "isAuthorized",
      "outputs": [
        {
          "internalType": "bool",
          "name": "",
          "type": "bool"
        }
      ],
      "stateMutability": "view",
      "type": "function"
    },
    {
      "inputs": [
        {
          "internalType": "address",
          "name": "_sender",
          "type": "address"
        },
        {
          "internalType": "uint256",
          "name": "_sourceChainId",
          "type": "uint256"
        }
      ],
      "name": "isSelf",
      "outputs": [
        {
          "internalType": "bool",
          "name": "",
          "type": "bool"
        }
      ],
      "stateMutability": "view",
      "type": "function"
    },
    {
      "inputs": [
        {
          "internalType": "uint256",
          "name": "",
          "type": "uint256"
        },
        {
          "internalType": "uint256",
          "name": "_sourceChainId",
          "type": "uint256"
        },
        {
          "internalType": "address",
          "name": "_sender",
          "type": "address"
        },
        {
          "internalType": "address",
          "name": "",
          "type": "address"
        },
        {
          "internalType": "uint256",
          "name": "",
          "type": "uint256"
        },
        {
          "internalType": "bytes",
          "name": "_data",
          "type": "bytes"
        }
      ],
      "name": "messageProcess",
      "outputs": [],
      "stateMutability": "nonpayable",
      "type": "function"
    },
    {
      "inputs": [],
      "name": "name",
      "outputs": [
        {
          "internalType": "string",
          "name": "",
          "type": "string"
        }
      ],
      "stateMutability": "view",
      "type": "function"
    },
    {
      "inputs": [
        {
          "internalType": "address",
          "name": "_token",
          "type": "address"
        },
        {
          "internalType": "uint256",
          "name": "_amount",
          "type": "uint256"
        }
      ],
      "name": "recoverToken",
      "outputs": [],
      "stateMutability": "nonpayable",
      "type": "function"
    },
    {
      "inputs": [
        {
          "internalType": "address",
          "name": "_signer",
          "type": "address"
        }
      ],
      "name": "setExsig",
      "outputs": [],
      "stateMutability": "nonpayable",
      "type": "function"
    },
    {
      "inputs": [
        {
          "internalType": "uint256",
          "name": "_maxFee",
          "type": "uint256"
        }
      ],
      "name": "setMaxfee",
      "outputs": [],
      "stateMutability": "nonpayable",
      "type": "function"
    },
    {
      "inputs": [
        {
          "internalType": "uint256",
          "name": "_maxGas",
          "type": "uint256"
        }
      ],
      "name": "setMaxgas",
      "outputs": [],
      "stateMutability": "nonpayable",
      "type": "function"
    },
    {
      "inputs": [],
      "name": "symbol",
      "outputs": [
        {
          "internalType": "string",
          "name": "",
          "type": "string"
        }
      ],
      "stateMutability": "view",
      "type": "function"
    },
    {
      "inputs": [
        {
          "internalType": "address",
          "name": "_to",
          "type": "address"
        },
        {
          "internalType": "uint256",
          "name": "_amount",
          "type": "uint256"
        }
      ],
      "name": "testMint",
      "outputs": [],
      "stateMutability": "nonpayable",
      "type": "function"
    },
    {
      "inputs": [],
      "name": "totalSupply",
      "outputs": [
        {
          "internalType": "uint256",
          "name": "",
          "type": "uint256"
        }
      ],
      "stateMutability": "view",
      "type": "function"
    },
    {
      "inputs": [
        {
          "internalType": "address",
          "name": "to",
          "type": "address"
        },
        {
          "internalType": "uint256",
          "name": "amount",
          "type": "uint256"
        }
      ],
      "name": "transfer",
      "outputs": [
        {
          "internalType": "bool",
          "name": "",
          "type": "bool"
        }
      ],
      "stateMutability": "nonpayable",
      "type": "function"
    },
    {
      "inputs": [
        {
          "internalType": "address",
          "name": "from",
          "type": "address"
        },
        {
          "internalType": "address",
          "name": "to",
          "type": "address"
        },
        {
          "internalType": "uint256",
          "name": "amount",
          "type": "uint256"
        }
      ],
      "name": "transferFrom",
      "outputs": [
        {
          "internalType": "bool",
          "name": "",
          "type": "bool"
        }
      ],
      "stateMutability": "nonpayable",
      "type": "function"
    },
    {
      "inputs": [
        {
          "internalType": "address",
          "name": "_newMessageOwner",
          "type": "address"
        }
      ],
      "name": "transferMessageOwnership",
      "outputs": [],
      "stateMutability": "nonpayable",
      "type": "function"
    },
    {
      "stateMutability": "payable",
      "type": "receive"
    }
  ],
  "transactionHash": "0xadecda5ed8918d850ec8c4c3194d1f44199a82b86e29514fc24036a06663ba9e",
  "args": [],
  "numDeployments": 2,
  "solcInputHash": "97b36280aef4850fc52ed687d41ca0c1",
  "bytecode": "0x60806040523480156200001157600080fd5b506040518060400160405280600e81526020016d22ba3434b7b834b0b7102134b93960911b8152506040518060400160405280600381526020016222aa2160e91b815250816003908162000066919062000135565b50600462000075828262000135565b5050600a80546001600160a01b031916331790555062000201565b634e487b7160e01b600052604160045260246000fd5b600181811c90821680620000bb57607f821691505b602082108103620000dc57634e487b7160e01b600052602260045260246000fd5b50919050565b601f8211156200013057600081815260208120601f850160051c810160208610156200010b5750805b601f850160051c820191505b818110156200012c5782815560010162000117565b5050505b505050565b81516001600160401b0381111562000151576200015162000090565b6200016981620001628454620000a6565b84620000e2565b602080601f831160018114620001a15760008415620001885750858301515b600019600386901b1c1916600185901b1785556200012c565b600085815260208120601f198616915b82811015620001d257888601518255948401946001909101908401620001b1565b5085821015620001f15787850151600019600388901b60f8161c191681555b5050505050600190811b01905550565b61232680620002116000396000f3fe6080604052600436106101cf5760003560e01c806379cc6790116100f6578063b7f494a41161008f578063e47ad74d11610061578063e47ad74d146105a1578063f28e093d146105c1578063f52a9198146105e1578063f71941381461060157005b8063b7f494a414610521578063bb0b983014610541578063c60853f614610561578063dd62ed3e1461058157005b8063a457c2d7116100c8578063a457c2d7146104a1578063a9059cbb146104c1578063b29a8140146104e1578063b479a9611461050157005b806379cc67901461041c578063853c75d81461043c57806392ae12fd1461045c57806395d89b411461048c57005b80632f820a5f11610168578063559b2f651161013a578063559b2f65146103865780635f46e740146103a657806370a08231146103c657806373717b08146103fc57005b80632f820a5f1461030a578063313ce5671461032a578063395093511461034657806342966c681461036657005b806320bfe342116101a157806320bfe3421461028a57806323b872dd146102aa5780632972b0f0146102ca5780632ee02d7c146102ea57005b806306fdde03146101d8578063095ea7b3146102035780630d0298021461023357806318160ddd1461026b57005b366101d657005b005b3480156101e457600080fd5b506101ed610621565b6040516101fa9190611c87565b60405180910390f35b34801561020f57600080fd5b5061022361021e366004611caf565b6106b3565b60405190151581526020016101fa565b34801561023f57600080fd5b50600554610253906001600160a01b031681565b6040516001600160a01b0390911681526020016101fa565b34801561027757600080fd5b506002545b6040519081526020016101fa565b34801561029657600080fd5b506102236102a5366004611caf565b6106cd565b3480156102b657600080fd5b506102236102c5366004611cdb565b610700565b3480156102d657600080fd5b506102236102e5366004611caf565b610724565b3480156102f657600080fd5b506101d6610305366004611d68565b610737565b34801561031657600080fd5b506101d6610325366004611e15565b6108cc565b34801561033657600080fd5b50604051601281526020016101fa565b34801561035257600080fd5b50610223610361366004611caf565b61098d565b34801561037257600080fd5b506101d6610381366004611e3c565b6109af565b34801561039257600080fd5b506101d66103a1366004611e55565b6109bc565b3480156103b257600080fd5b506101d66103c1366004611e72565b610a42565b3480156103d257600080fd5b5061027c6103e1366004611e55565b6001600160a01b031660009081526020819052604090205490565b34801561040857600080fd5b50600654610253906001600160a01b031681565b34801561042857600080fd5b506101d6610437366004611caf565b610ad3565b34801561044857600080fd5b50600a54610253906001600160a01b031681565b34801561046857600080fd5b5061047c610477366004611e3c565b610aec565b6040516101fa9493929190611f27565b34801561049857600080fd5b506101ed610bb1565b3480156104ad57600080fd5b506102236104bc366004611caf565b610bc0565b3480156104cd57600080fd5b506102236104dc366004611caf565b610c3b565b3480156104ed57600080fd5b506101d66104fc366004611caf565b610c49565b34801561050d57600080fd5b506101d661051c366004611e3c565b610dd1565b34801561052d57600080fd5b506101d661053c366004611d68565b610e90565b34801561054d57600080fd5b50600754610253906001600160a01b031681565b34801561056d57600080fd5b506101d661057c366004611e55565b611043565b34801561058d57600080fd5b5061027c61059c366004611f67565b61110b565b3480156105ad57600080fd5b506101d66105bc366004611e3c565b611136565b3480156105cd57600080fd5b506101d66105dc366004611caf565b6111f5565b3480156105ed57600080fd5b5061047c6105fc366004611fa0565b611268565b34801561060d57600080fd5b506101d661061c366004611e55565b61129f565b60606003805461063090611fce565b80601f016020809104026020016040519081016040528092919081815260200182805461065c90611fce565b80156106a95780601f1061067e576101008083540402835291602001916106a9565b820191906000526020600020905b81548152906001019060200180831161068c57829003601f168201915b5050505050905090565b6000336106c18185856112eb565b60019150505b92915050565b6000818152600960205260408120546001600160a01b03908116908416036106f7575060016106c7565b50600092915050565b60003361070e858285611410565b61071985858561148a565b506001949350505050565b600061073083836106cd565b9392505050565b600a546001600160a01b0316331461076a5760405162461bcd60e51b815260040161076190612008565b60405180910390fd5b8460005b818110156108b8578383828181106107885761078861203f565b905060200201602081019061079d9190612055565b600960008a8a858181106107b3576107b361203f565b90506020020135815260200190815260200160002060020160006101000a81548161ffff021916908361ffff1602179055508585828181106107f7576107f761203f565b905060200201602081019061080c9190611e55565b600960008a8a858181106108225761082261203f565b90506020020135815260200190815260200160002060000160006101000a8154816001600160a01b0302191690836001600160a01b031602179055506000600960008a8a858181106108765761087661203f565b90506020020135815260200190815260200160002060020160026101000a81548160ff02191690831515021790555080806108b09061208f565b91505061076e565b506108c28861162e565b5050505050505050565b60008381526009602052604090205483906001600160a01b03166109465760405162461bcd60e51b815260206004820152602b60248201527f4d657373616765436c69656e743a2064657374696e6174696f6e20636861696e60448201526a206e6f742061637469766560a81b6064820152608401610761565b61095033836118b5565b604080516001600160a01b03851660208201529081018390526109869085906060016040516020818303038152906040526119e4565b5050505050565b6000336106c18185856109a0838361110b565b6109aa91906120a8565b6112eb565b6109b933826118b5565b50565b600a546001600160a01b031633146109e65760405162461bcd60e51b815260040161076190612008565b600a80546001600160a01b0319166001600160a01b0383169081179091556040805133815260208101929092527fe1a25f463c6504824e91268b5b2c05658d5358c9c1698a85346cfae5336a642e91015b60405180910390a150565b600554859087906001600160a01b03163314610a705760405162461bcd60e51b815260040161076190612008565b6000818152600960205260409020546001600160a01b03838116911614610aa95760405162461bcd60e51b815260040161076190612008565b600080610ab885870187611caf565b91509150610ac68282611b82565b5050505050505050505050565b610ade823383611410565b610ae882826118b5565b5050565b600960205260009081526040902080546001820180546001600160a01b039092169291610b1890611fce565b80601f0160208091040260200160405190810160405280929190818152602001828054610b4490611fce565b8015610b915780601f10610b6657610100808354040283529160200191610b91565b820191906000526020600020905b815481529060010190602001808311610b7457829003601f168201915b5050506002909301549192505061ffff81169060ff620100009091041684565b60606004805461063090611fce565b60003381610bce828661110b565b905083811015610c2e5760405162461bcd60e51b815260206004820152602560248201527f45524332303a2064656372656173656420616c6c6f77616e63652062656c6f77604482015264207a65726f60d81b6064820152608401610761565b61071982868684036112eb565b6000336106c181858561148a565b600a546001600160a01b03163314610c735760405162461bcd60e51b815260040161076190612008565b6001600160a01b038216610d1157604051600090339083908381818185875af1925050503d8060008114610cc3576040519150601f19603f3d011682016040523d82523d6000602084013e610cc8565b606091505b5050905080610d0b5760405162461bcd60e51b815260206004820152600f60248201526e151c985b9cd9995c8819985a5b1959608a1b6044820152606401610761565b50610d84565b60405163a9059cbb60e01b8152336004820152602481018290526001600160a01b0383169063a9059cbb906044016020604051808303816000875af1158015610d5e573d6000803e3d6000fd5b505050506040513d601f19601f82011682018060405250810190610d8291906120bb565b505b604080513381526001600160a01b03841660208201529081018290527f16a1412f01b73c390eb2548427101644aa86c1443c272f73df00fb74c48fe4999060600160405180910390a15050565b600a546001600160a01b03163314610dfb5760405162461bcd60e51b815260040161076190612008565b60055460405163b479a96160e01b8152600481018390526001600160a01b039091169063b479a96190602401600060405180830381600087803b158015610e4157600080fd5b505af1158015610e55573d6000803e3d6000fd5b505060408051338152602081018590527f7b6bdf5a54b984bdb41e777eb126123085d57633ab56d408d9a1d39dd894e7bb9350019050610a37565b600a546001600160a01b03163314610eba5760405162461bcd60e51b815260040161076190612008565b8460005b818110156108b857838382818110610ed857610ed861203f565b9050602002016020810190610eed9190612055565b600960008a8a85818110610f0357610f0361203f565b90506020020135815260200190815260200160002060020160006101000a81548161ffff021916908361ffff160217905550858582818110610f4757610f4761203f565b9050602002810190610f5991906120dd565b600960008b8b86818110610f6f57610f6f61203f565b9050602002013581526020019081526020016000206001019182610f94929190612188565b506001600960008a8a85818110610fad57610fad61203f565b90506020020135815260200190815260200160002060020160026101000a81548160ff0219169083151502179055506001600960008a8a85818110610ff457610ff461203f565b90506020020135815260200190815260200160002060000160006101000a8154816001600160a01b0302191690836001600160a01b03160217905550808061103b9061208f565b915050610ebe565b600a546001600160a01b0316331461106d5760405162461bcd60e51b815260040161076190612008565b60055460405163630429fb60e11b81526001600160a01b0383811660048301529091169063c60853f690602401600060405180830381600087803b1580156110b457600080fd5b505af11580156110c8573d6000803e3d6000fd5b5050604080513381526001600160a01b03851660208201527f3785abad972484d82ebc033d8eb190737cd209b24e7f853dd622e415c3f537a29350019050610a37565b6001600160a01b03918216600090815260016020908152604080832093909416825291909152205490565b600a546001600160a01b031633146111605760405162461bcd60e51b815260040161076190612008565b60055460405163e47ad74d60e01b8152600481018390526001600160a01b039091169063e47ad74d90602401600060405180830381600087803b1580156111a657600080fd5b505af11580156111ba573d6000803e3d6000fd5b505060408051338152602081018590527f83f76efc0c025b2e3779f7bcead5a89ddaf05dc7829157cdab021a8591e7a6f99350019050610a37565b600a546001600160a01b0316331461125e5760405162461bcd60e51b815260206004820152602660248201527f4554423a204f6e6c79206f776e65722063616e2063616c6c20746869732066756044820152653731ba34b7b760d11b6064820152608401610761565b610ae88282611b82565b6008602090815260009283526040808420909152908252902080546001820180546001600160a01b039092169291610b1890611fce565b600a546001600160a01b031633146112c95760405162461bcd60e51b815260040161076190612008565b600780546001600160a01b0319166001600160a01b0392909216919091179055565b6001600160a01b03831661134d5760405162461bcd60e51b8152602060048201526024808201527f45524332303a20617070726f76652066726f6d20746865207a65726f206164646044820152637265737360e01b6064820152608401610761565b6001600160a01b0382166113ae5760405162461bcd60e51b815260206004820152602260248201527f45524332303a20617070726f766520746f20746865207a65726f206164647265604482015261737360f01b6064820152608401610761565b6001600160a01b0383811660008181526001602090815260408083209487168084529482529182902085905590518481527f8c5be1e5ebec7d5bd14f71427d1e84f3dd0314c0f7b2291e5b200ac8c7c3b92591015b60405180910390a3505050565b600061141c848461110b565b9050600019811461148457818110156114775760405162461bcd60e51b815260206004820152601d60248201527f45524332303a20696e73756666696369656e7420616c6c6f77616e63650000006044820152606401610761565b61148484848484036112eb565b50505050565b6001600160a01b0383166114ee5760405162461bcd60e51b815260206004820152602560248201527f45524332303a207472616e736665722066726f6d20746865207a65726f206164604482015264647265737360d81b6064820152608401610761565b6001600160a01b0382166115505760405162461bcd60e51b815260206004820152602360248201527f45524332303a207472616e7366657220746f20746865207a65726f206164647260448201526265737360e81b6064820152608401610761565b6001600160a01b038316600090815260208190526040902054818110156115c85760405162461bcd60e51b815260206004820152602660248201527f45524332303a207472616e7366657220616d6f756e7420657863656564732062604482015265616c616e636560d01b6064820152608401610761565b6001600160a01b03848116600081815260208181526040808320878703905593871680835291849020805487019055925185815290927fddf252ad1be2c89b69c2b068fc378daa952ba7f163c4a11628f55a4df523b3ef910160405180910390a3611484565b600580546001600160a01b0319166001600160a01b0383169081179091556040805163647846a560e01b8152905163647846a5916004808201926020929091908290030181865afa158015611687573d6000803e3d6000fd5b505050506040513d601f19601f820116820180604052508101906116ab9190612248565b600680546001600160a01b0319166001600160a01b039290921691821790551561174b5760065460055460405163095ea7b360e01b81526001600160a01b039182166004820152600019602482015291169063095ea7b3906044016020604051808303816000875af1158015611725573d6000803e3d6000fd5b505050506040513d601f19601f8201168201806040525081019061174991906120bb565b505b60055460408051633fc8cef360e01b815290516000926001600160a01b031691633fc8cef39160048083019260209291908290030181865afa158015611795573d6000803e3d6000fd5b505050506040513d601f19601f820116820180604052508101906117b99190612248565b6001600160a01b0316146109b957600560009054906101000a90046001600160a01b03166001600160a01b0316633fc8cef36040518163ffffffff1660e01b8152600401602060405180830381865afa15801561181a573d6000803e3d6000fd5b505050506040513d601f19601f8201168201806040525081019061183e9190612248565b60055460405163095ea7b360e01b81526001600160a01b039182166004820152600019602482015291169063095ea7b3906044016020604051808303816000875af1158015611891573d6000803e3d6000fd5b505050506040513d601f19601f82011682018060405250810190610ae891906120bb565b6001600160a01b0382166119155760405162461bcd60e51b815260206004820152602160248201527f45524332303a206275726e2066726f6d20746865207a65726f206164647265736044820152607360f81b6064820152608401610761565b6001600160a01b038216600090815260208190526040902054818110156119895760405162461bcd60e51b815260206004820152602260248201527f45524332303a206275726e20616d6f756e7420657863656564732062616c616e604482015261636560f01b6064820152608401610761565b6001600160a01b0383166000818152602081815260408083208686039055600280548790039055518581529192917fddf252ad1be2c89b69c2b068fc378daa952ba7f163c4a11628f55a4df523b3ef9101611403565b505050565b600082815260096020908152604080832081516080810190925280546001600160a01b03168252600181018054859484019190611a2090611fce565b80601f0160208091040260200160405190810160405280929190818152602001828054611a4c90611fce565b8015611a995780601f10611a6e57610100808354040283529160200191611a99565b820191906000526020600020905b815481529060010190602001808311611a7c57829003601f168201915b50505091835250506002919091015461ffff8116602083015262010000900460ff161515604090910152606081015190915015611af957828160200151604051602001611ae7929190612265565b60405160208183030381529060405292505b60055481516040808401519051633f6b724360e21b81526001600160a01b039093169263fdadc90c92611b3792909189918991600090600401612293565b6020604051808303816000875af1158015611b56573d6000803e3d6000fd5b505050506040513d601f19601f82011682018060405250810190611b7a91906122d7565b949350505050565b6001600160a01b038216611bd85760405162461bcd60e51b815260206004820152601f60248201527f45524332303a206d696e7420746f20746865207a65726f2061646472657373006044820152606401610761565b8060026000828254611bea91906120a8565b90915550506001600160a01b038216600081815260208181526040808320805486019055518481527fddf252ad1be2c89b69c2b068fc378daa952ba7f163c4a11628f55a4df523b3ef910160405180910390a35050565b6000815180845260005b81811015611c6757602081850181015186830182015201611c4b565b506000602082860101526020601f19601f83011685010191505092915050565b6020815260006107306020830184611c41565b6001600160a01b03811681146109b957600080fd5b60008060408385031215611cc257600080fd5b8235611ccd81611c9a565b946020939093013593505050565b600080600060608486031215611cf057600080fd5b8335611cfb81611c9a565b92506020840135611d0b81611c9a565b929592945050506040919091013590565b60008083601f840112611d2e57600080fd5b50813567ffffffffffffffff811115611d4657600080fd5b6020830191508360208260051b8501011115611d6157600080fd5b9250929050565b60008060008060008060006080888a031215611d8357600080fd5b8735611d8e81611c9a565b9650602088013567ffffffffffffffff80821115611dab57600080fd5b611db78b838c01611d1c565b909850965060408a0135915080821115611dd057600080fd5b611ddc8b838c01611d1c565b909650945060608a0135915080821115611df557600080fd5b50611e028a828b01611d1c565b989b979a50959850939692959293505050565b600080600060608486031215611e2a57600080fd5b833592506020840135611d0b81611c9a565b600060208284031215611e4e57600080fd5b5035919050565b600060208284031215611e6757600080fd5b813561073081611c9a565b600080600080600080600060c0888a031215611e8d57600080fd5b87359650602088013595506040880135611ea681611c9a565b94506060880135611eb681611c9a565b93506080880135925060a088013567ffffffffffffffff80821115611eda57600080fd5b818a0191508a601f830112611eee57600080fd5b813581811115611efd57600080fd5b8b6020828501011115611f0f57600080fd5b60208301945080935050505092959891949750929550565b6001600160a01b0385168152608060208201819052600090611f4b90830186611c41565b61ffff9490941660408301525090151560609091015292915050565b60008060408385031215611f7a57600080fd5b8235611f8581611c9a565b91506020830135611f9581611c9a565b809150509250929050565b60008060408385031215611fb357600080fd5b82359150602083013563ffffffff81168114611f9557600080fd5b600181811c90821680611fe257607f821691505b60208210810361200257634e487b7160e01b600052602260045260246000fd5b50919050565b6020808252601d908201527f4d657373616765436c69656e743a206e6f7420617574686f72697a6564000000604082015260600190565b634e487b7160e01b600052603260045260246000fd5b60006020828403121561206757600080fd5b813561ffff8116811461073057600080fd5b634e487b7160e01b600052601160045260246000fd5b6000600182016120a1576120a1612079565b5060010190565b808201808211156106c7576106c7612079565b6000602082840312156120cd57600080fd5b8151801515811461073057600080fd5b6000808335601e198436030181126120f457600080fd5b83018035915067ffffffffffffffff82111561210f57600080fd5b602001915036819003821315611d6157600080fd5b634e487b7160e01b600052604160045260246000fd5b601f8211156119df57600081815260208120601f850160051c810160208610156121615750805b601f850160051c820191505b818110156121805782815560010161216d565b505050505050565b67ffffffffffffffff8311156121a0576121a0612124565b6121b4836121ae8354611fce565b8361213a565b6000601f8411600181146121e857600085156121d05750838201355b600019600387901b1c1916600186901b178355610986565b600083815260209020601f19861690835b8281101561221957868501358255602094850194600190920191016121f9565b50868210156122365760001960f88860031b161c19848701351681555b505060018560011b0183555050505050565b60006020828403121561225a57600080fd5b815161073081611c9a565b6040815260006122786040830185611c41565b828103602084015261228a8185611c41565b95945050505050565b60018060a01b038616815284602082015260a0604082015260006122ba60a0830186611c41565b61ffff949094166060830152509015156080909101529392505050565b6000602082840312156122e957600080fd5b505191905056fea26469706673582212201377953313bc7fcf2c70f83d150d3580662e17129b525e72ea2f3eec3dfb1dea64736f6c63430008110033",
  "devdoc": {
    "kind": "dev",
    "methods": {
      "allowance(address,address)": {
        "details": "See {IERC20-allowance}."
      },
      "approve(address,uint256)": {
        "details": "See {IERC20-approve}. NOTE: If `amount` is the maximum `uint256`, the allowance is not updated on `transferFrom`. This is semantically equivalent to an infinite approval. Requirements: - `spender` cannot be the zero address."
      },
      "balanceOf(address)": {
        "details": "See {IERC20-balanceOf}."
      },
      "burn(uint256)": {
        "details": "Destroys `amount` tokens from the caller. See {ERC20-_burn}."
      },
      "burnFrom(address,uint256)": {
        "details": "Destroys `amount` tokens from `account`, deducting from the caller's allowance. See {ERC20-_burn} and {ERC20-allowance}. Requirements: - the caller must have allowance for ``accounts``'s tokens of at least `amount`."
      },
      "decimals()": {
        "details": "Returns the number of decimals used to get its user representation. For example, if `decimals` equals `2`, a balance of `505` tokens should be displayed to a user as `5.05` (`505 / 10 ** 2`). Tokens usually opt for a value of 18, imitating the relationship between Ether and Wei. This is the default value returned by this function, unless it's overridden. NOTE: This information is only used for _display_ purposes: it in no way affects any of the arithmetic of the contract, including {IERC20-balanceOf} and {IERC20-transfer}."
      },
      "decreaseAllowance(address,uint256)": {
        "details": "Atomically decreases the allowance granted to `spender` by the caller. This is an alternative to {approve} that can be used as a mitigation for problems described in {IERC20-approve}. Emits an {Approval} event indicating the updated allowance. Requirements: - `spender` cannot be the zero address. - `spender` must have allowance for the caller of at least `subtractedValue`."
      },
      "increaseAllowance(address,uint256)": {
        "details": "Atomically increases the allowance granted to `spender` by the caller. This is an alternative to {approve} that can be used as a mitigation for problems described in {IERC20-approve}. Emits an {Approval} event indicating the updated allowance. Requirements: - `spender` cannot be the zero address."
      },
      "name()": {
        "details": "Returns the name of the token."
      },
      "symbol()": {
        "details": "Returns the symbol of the token, usually a shorter version of the name."
      },
      "totalSupply()": {
        "details": "See {IERC20-totalSupply}."
      },
      "transfer(address,uint256)": {
        "details": "See {IERC20-transfer}. Requirements: - `to` cannot be the zero address. - the caller must have a balance of at least `amount`."
      },
      "transferFrom(address,address,uint256)": {
        "details": "See {IERC20-transferFrom}. Emits an {Approval} event indicating the updated allowance. This is not required by the EIP. See the note at the beginning of {ERC20}. NOTE: Does not update the allowance if the current allowance is the maximum `uint256`. Requirements: - `from` and `to` cannot be the zero address. - `from` must have a balance of at least `amount`. - the caller must have allowance for ``from``'s tokens of at least `amount`."
      }
    },
    "version": 1
  },
  "userdoc": {
    "kind": "user",
    "methods": {
      "configureClientExtended(address,uint256[],bytes[],uint16[])": {
        "notice": "OWNER "
      }
    },
    "version": 1
  },
  "storageLayout": {
    "storage": [
      {
        "astId": 15,
        "contract": "contracts/ETB.sol:ETB",
        "label": "_balances",
        "offset": 0,
        "slot": "0",
        "type": "t_mapping(t_address,t_uint256)"
      },
      {
        "astId": 21,
        "contract": "contracts/ETB.sol:ETB",
        "label": "_allowances",
        "offset": 0,
        "slot": "1",
        "type": "t_mapping(t_address,t_mapping(t_address,t_uint256))"
      },
      {
        "astId": 23,
        "contract": "contracts/ETB.sol:ETB",
        "label": "_totalSupply",
        "offset": 0,
        "slot": "2",
        "type": "t_uint256"
      },
      {
        "astId": 25,
        "contract": "contracts/ETB.sol:ETB",
        "label": "_name",
        "offset": 0,
        "slot": "3",
        "type": "t_string_storage"
      },
      {
        "astId": 27,
        "contract": "contracts/ETB.sol:ETB",
        "label": "_symbol",
        "offset": 0,
        "slot": "4",
        "type": "t_string_storage"
      },
      {
        "astId": 1120,
        "contract": "contracts/ETB.sol:ETB",
        "label": "MESSAGEv3",
        "offset": 0,
        "slot": "5",
        "type": "t_contract(IMessageV3)1043"
      },
      {
        "astId": 1123,
        "contract": "contracts/ETB.sol:ETB",
        "label": "FEE_TOKEN",
        "offset": 0,
        "slot": "6",
        "type": "t_contract(IERC20cl)847"
      },
      {
        "astId": 1126,
        "contract": "contracts/ETB.sol:ETB",
        "label": "FEATURE_GATEWAY",
        "offset": 0,
        "slot": "7",
        "type": "t_contract(IFeatureGateway)1116"
      },
      {
        "astId": 1133,
        "contract": "contracts/ETB.sol:ETB",
        "label": "FEATURES",
        "offset": 0,
        "slot": "8",
        "type": "t_mapping(t_uint256,t_mapping(t_uint32,t_struct(ChainData)1142_storage))"
      },
      {
        "astId": 1147,
        "contract": "contracts/ETB.sol:ETB",
        "label": "CHAINS",
        "offset": 0,
        "slot": "9",
        "type": "t_mapping(t_uint256,t_struct(ChainData)1142_storage)"
      },
      {
        "astId": 1149,
        "contract": "contracts/ETB.sol:ETB",
        "label": "MESSAGE_OWNER",
        "offset": 0,
        "slot": "10",
        "type": "t_address"
      },
      {
        "astId": 1151,
        "contract": "contracts/ETB.sol:ETB",
        "label": "initialized",
        "offset": 20,
        "slot": "10",
        "type": "t_bool"
      },
      {
        "astId": 1910,
        "contract": "contracts/ETB.sol:ETB",
        "label": "__gap",
        "offset": 0,
        "slot": "11",
        "type": "t_array(t_uint256)50_storage"
      }
    ],
    "types": {
      "t_address": {
        "encoding": "inplace",
        "label": "address",
        "numberOfBytes": "20"
      },
      "t_array(t_uint256)50_storage": {
        "base": "t_uint256",
        "encoding": "inplace",
        "label": "uint256[50]",
        "numberOfBytes": "1600"
      },
      "t_bool": {
        "encoding": "inplace",
        "label": "bool",
        "numberOfBytes": "1"
      },
      "t_bytes_storage": {
        "encoding": "bytes",
        "label": "bytes",
        "numberOfBytes": "32"
      },
      "t_contract(IERC20cl)847": {
        "encoding": "inplace",
        "label": "contract IERC20cl",
        "numberOfBytes": "20"
      },
      "t_contract(IFeatureGateway)1116": {
        "encoding": "inplace",
        "label": "contract IFeatureGateway",
        "numberOfBytes": "20"
      },
      "t_contract(IMessageV3)1043": {
        "encoding": "inplace",
        "label": "contract IMessageV3",
        "numberOfBytes": "20"
      },
      "t_mapping(t_address,t_mapping(t_address,t_uint256))": {
        "encoding": "mapping",
        "key": "t_address",
        "label": "mapping(address => mapping(address => uint256))",
        "numberOfBytes": "32",
        "value": "t_mapping(t_address,t_uint256)"
      },
      "t_mapping(t_address,t_uint256)": {
        "encoding": "mapping",
        "key": "t_address",
        "label": "mapping(address => uint256)",
        "numberOfBytes": "32",
        "value": "t_uint256"
      },
      "t_mapping(t_uint256,t_mapping(t_uint32,t_struct(ChainData)1142_storage))": {
        "encoding": "mapping",
        "key": "t_uint256",
        "label": "mapping(uint256 => mapping(uint32 => struct MessageClient.ChainData))",
        "numberOfBytes": "32",
        "value": "t_mapping(t_uint32,t_struct(ChainData)1142_storage)"
      },
      "t_mapping(t_uint256,t_struct(ChainData)1142_storage)": {
        "encoding": "mapping",
        "key": "t_uint256",
        "label": "mapping(uint256 => struct MessageClient.ChainData)",
        "numberOfBytes": "32",
        "value": "t_struct(ChainData)1142_storage"
      },
      "t_mapping(t_uint32,t_struct(ChainData)1142_storage)": {
        "encoding": "mapping",
        "key": "t_uint32",
        "label": "mapping(uint32 => struct MessageClient.ChainData)",
        "numberOfBytes": "32",
        "value": "t_struct(ChainData)1142_storage"
      },
      "t_string_storage": {
        "encoding": "bytes",
        "label": "string",
        "numberOfBytes": "32"
      },
      "t_struct(ChainData)1142_storage": {
        "encoding": "inplace",
        "label": "struct MessageClient.ChainData",
        "members": [
          {
            "astId": 1135,
            "contract": "contracts/ETB.sol:ETB",
            "label": "endpoint",
            "offset": 0,
            "slot": "0",
            "type": "t_address"
          },
          {
            "astId": 1137,
            "contract": "contracts/ETB.sol:ETB",
            "label": "endpointExtended",
            "offset": 0,
            "slot": "1",
            "type": "t_bytes_storage"
          },
          {
            "astId": 1139,
            "contract": "contracts/ETB.sol:ETB",
            "label": "confirmations",
            "offset": 0,
            "slot": "2",
            "type": "t_uint16"
          },
          {
            "astId": 1141,
            "contract": "contracts/ETB.sol:ETB",
            "label": "extended",
            "offset": 2,
            "slot": "2",
            "type": "t_bool"
          }
        ],
        "numberOfBytes": "96"
      },
      "t_uint16": {
        "encoding": "inplace",
        "label": "uint16",
        "numberOfBytes": "2"
      },
      "t_uint256": {
        "encoding": "inplace",
        "label": "uint256",
        "numberOfBytes": "32"
      },
      "t_uint32": {
        "encoding": "inplace",
        "label": "uint32",
        "numberOfBytes": "4"
      }
    }
  }
}